{"contracts/HealthcareRBAC.sol":{"HealthcareRBAC":{"abi":[{"inputs":[],"stateMutability":"nonpayable","type":"constructor"},{"anonymous":false,"inputs":[{"indexed":false,"internalType":"string","name":"userId","type":"string"},{"indexed":false,"internalType":"enum HealthcareRBAC.Role","name":"role","type":"uint8"}],"name":"RoleAssigned","type":"event"},{"inputs":[],"name":"admin","outputs":[{"internalType":"address","name":"","type":"address"}],"stateMutability":"view","type":"function"},{"inputs":[{"internalType":"string","name":"userId","type":"string"},{"internalType":"enum HealthcareRBAC.Role","name":"role","type":"uint8"}],"name":"assignRole","outputs":[],"stateMutability":"nonpayable","type":"function"},{"inputs":[{"internalType":"string","name":"userId","type":"string"}],"name":"getUserRole","outputs":[{"internalType":"enum HealthcareRBAC.Role","name":"","type":"uint8"}],"stateMutability":"view","type":"function"}],"evm":{"bytecode":{"linkReferences":{},"object":"608060405234801561001057600080fd5b50336000806101000a81548173ffffffffffffffffffffffffffffffffffffffff021916908373ffffffffffffffffffffffffffffffffffffffff1602179055506108c7806100606000396000f3fe608060405234801561001057600080fd5b50600436106100415760003560e01c8063357e129e14610046578063bef2691114610076578063f851a44014610092575b600080fd5b610060600480360381019061005b919061046d565b6100b0565b60405161006d919061052d565b60405180910390f35b610090600480360381019061008b919061056d565b6100e5565b005b61009a6102ef565b6040516100a7919061060a565b60405180910390f35b60006001826040516100c29190610696565b908152602001604051809103902060009054906101000a900460ff169050919050565b60008054906101000a900473ffffffffffffffffffffffffffffffffffffffff1673ffffffffffffffffffffffffffffffffffffffff163373ffffffffffffffffffffffffffffffffffffffff1614610173576040517f08c379a000000000000000000000000000000000000000000000000000000000815260040161016a90610730565b60405180910390fd5b60006003811115610187576101866104b6565b5b81600381111561019a576101996104b6565b5b036101da576040517f08c379a00000000000000000000000000000000000000000000000000000000081526004016101d19061079c565b60405180910390fd5b600060038111156101ee576101ed6104b6565b5b6001836040516101fe9190610696565b908152602001604051809103902060009054906101000a900460ff16600381111561022c5761022b6104b6565b5b1461026c576040517f08c379a000000000000000000000000000000000000000000000000000000000815260040161026390610808565b60405180910390fd5b8060018360405161027d9190610696565b908152602001604051809103902060006101000a81548160ff021916908360038111156102ad576102ac6104b6565b5b02179055507fc8b4254c7a21db264ce2cca69cce1c6214a7a7dc6c0e2ba97199a38c91fb479782826040516102e3929190610861565b60405180910390a15050565b60008054906101000a900473ffffffffffffffffffffffffffffffffffffffff1681565b6000604051905090565b600080fd5b600080fd5b600080fd5b600080fd5b6000601f19601f8301169050919050565b7f4e487b7100000000000000000000000000000000000000000000000000000000600052604160045260246000fd5b61037a82610331565b810181811067ffffffffffffffff8211171561039957610398610342565b5b80604052505050565b60006103ac610313565b90506103b88282610371565b919050565b600067ffffffffffffffff8211156103d8576103d7610342565b5b6103e182610331565b9050602081019050919050565b82818337600083830152505050565b600061041061040b846103bd565b6103a2565b90508281526020810184848401111561042c5761042b61032c565b5b6104378482856103ee565b509392505050565b600082601f83011261045457610453610327565b5b81356104648482602086016103fd565b91505092915050565b6000602082840312156104835761048261031d565b5b600082013567ffffffffffffffff8111156104a1576104a0610322565b5b6104ad8482850161043f565b91505092915050565b7f4e487b7100000000000000000000000000000000000000000000000000000000600052602160045260246000fd5b600481106104f6576104f56104b6565b5b50565b6000819050610507826104e5565b919050565b6000610517826104f9565b9050919050565b6105278161050c565b82525050565b6000602082019050610542600083018461051e565b92915050565b6004811061055557600080fd5b50565b60008135905061056781610548565b92915050565b600080604083850312156105845761058361031d565b5b600083013567ffffffffffffffff8111156105a2576105a1610322565b5b6105ae8582860161043f565b92505060206105bf85828601610558565b9150509250929050565b600073ffffffffffffffffffffffffffffffffffffffff82169050919050565b60006105f4826105c9565b9050919050565b610604816105e9565b82525050565b600060208201905061061f60008301846105fb565b92915050565b600081519050919050565b600081905092915050565b60005b8381101561065957808201518184015260208101905061063e565b60008484015250505050565b600061067082610625565b61067a8185610630565b935061068a81856020860161063b565b80840191505092915050565b60006106a28284610665565b915081905092915050565b600082825260208201905092915050565b7f4f6e6c792061646d696e2063616e20706572666f726d2074686973206163746960008201527f6f6e000000000000000000000000000000000000000000000000000000000000602082015250565b600061071a6022836106ad565b9150610725826106be565b604082019050919050565b600060208201905081810360008301526107498161070d565b9050919050565b7f496e76616c696420726f6c650000000000000000000000000000000000000000600082015250565b6000610786600c836106ad565b915061079182610750565b602082019050919050565b600060208201905081810360008301526107b581610779565b9050919050565b7f526f6c6520616c72656164792061737369676e65640000000000000000000000600082015250565b60006107f26015836106ad565b91506107fd826107bc565b602082019050919050565b60006020820190508181036000830152610821816107e5565b9050919050565b600061083382610625565b61083d81856106ad565b935061084d81856020860161063b565b61085681610331565b840191505092915050565b6000604082019050818103600083015261087b8185610828565b905061088a602083018461051e565b939250505056fea2646970667358221220ae34fc0c4d648f8aa84c1fb7698747dcb945d7f8416537d45d050b5c9c5a33a264736f6c63430008140033","opcodes":"PUSH1 0x80 PUSH1 0x40 MSTORE CALLVALUE DUP1 ISZERO PUSH2 0x10 JUMPI PUSH1 0x0 DUP1 REVERT JUMPDEST POP CALLER PUSH1 0x0 DUP1 PUSH2 0x100 EXP DUP2 SLOAD DUP2 PUSH20 0xFFFFFFFFFFFFFFFFFFFFFFFFFFFFFFFFFFFFFFFF MUL NOT AND SWAP1 DUP4 PUSH20 0xFFFFFFFFFFFFFFFFFFFFFFFFFFFFFFFFFFFFFFFF AND MUL OR SWAP1 SSTORE POP PUSH2 0x8C7 DUP1 PUSH2 0x60 PUSH1 0x0 CODECOPY PUSH1 0x0 RETURN INVALID PUSH1 0x80 PUSH1 0x40 MSTORE CALLVALUE DUP1 ISZERO PUSH2 0x10 JUMPI PUSH1 0x0 DUP1 REVERT JUMPDEST POP PUSH1 0x4 CALLDATASIZE LT PUSH2 0x41 JUMPI PUSH1 0x0 CALLDATALOAD PUSH1 0xE0 SHR DUP1 PUSH4 0x357E129E EQ PUSH2 0x46 JUMPI DUP1 PUSH4 0xBEF26911 EQ PUSH2 0x76 JUMPI DUP1 PUSH4 0xF851A440 EQ PUSH2 0x92 JUMPI JUMPDEST PUSH1 0x0 DUP1 REVERT JUMPDEST PUSH2 0x60 PUSH1 0x4 DUP1 CALLDATASIZE SUB DUP2 ADD SWAP1 PUSH2 0x5B SWAP2 SWAP1 PUSH2 0x46D JUMP JUMPDEST PUSH2 0xB0 JUMP JUMPDEST PUSH1 0x40 MLOAD PUSH2 0x6D SWAP2 SWAP1 PUSH2 0x52D JUMP JUMPDEST PUSH1 0x40 MLOAD DUP1 SWAP2 SUB SWAP1 RETURN JUMPDEST PUSH2 0x90 PUSH1 0x4 DUP1 CALLDATASIZE SUB DUP2 ADD SWAP1 PUSH2 0x8B SWAP2 SWAP1 PUSH2 0x56D JUMP JUMPDEST PUSH2 0xE5 JUMP JUMPDEST STOP JUMPDEST PUSH2 0x9A PUSH2 0x2EF JUMP JUMPDEST PUSH1 0x40 MLOAD PUSH2 0xA7 SWAP2 SWAP1 PUSH2 0x60A JUMP JUMPDEST PUSH1 0x40 MLOAD DUP1 SWAP2 SUB SWAP1 RETURN JUMPDEST PUSH1 0x0 PUSH1 0x1 DUP3 PUSH1 0x40 MLOAD PUSH2 0xC2 SWAP2 SWAP1 PUSH2 0x696 JUMP JUMPDEST SWAP1 DUP2 MSTORE PUSH1 0x20 ADD PUSH1 0x40 MLOAD DUP1 SWAP2 SUB SWAP1 KECCAK256 PUSH1 0x0 SWAP1 SLOAD SWAP1 PUSH2 0x100 EXP SWAP1 DIV PUSH1 0xFF AND SWAP1 POP SWAP2 SWAP1 POP JUMP JUMPDEST PUSH1 0x0 DUP1 SLOAD SWAP1 PUSH2 0x100 EXP SWAP1 DIV PUSH20 0xFFFFFFFFFFFFFFFFFFFFFFFFFFFFFFFFFFFFFFFF AND PUSH20 0xFFFFFFFFFFFFFFFFFFFFFFFFFFFFFFFFFFFFFFFF AND CALLER PUSH20 0xFFFFFFFFFFFFFFFFFFFFFFFFFFFFFFFFFFFFFFFF AND EQ PUSH2 0x173 JUMPI PUSH1 0x40 MLOAD PUSH32 0x8C379A000000000000000000000000000000000000000000000000000000000 DUP2 MSTORE PUSH1 0x4 ADD PUSH2 0x16A SWAP1 PUSH2 0x730 JUMP JUMPDEST PUSH1 0x40 MLOAD DUP1 SWAP2 SUB SWAP1 REVERT JUMPDEST PUSH1 0x0 PUSH1 0x3 DUP2 GT ISZERO PUSH2 0x187 JUMPI PUSH2 0x186 PUSH2 0x4B6 JUMP JUMPDEST JUMPDEST DUP2 PUSH1 0x3 DUP2 GT ISZERO PUSH2 0x19A JUMPI PUSH2 0x199 PUSH2 0x4B6 JUMP JUMPDEST JUMPDEST SUB PUSH2 0x1DA JUMPI PUSH1 0x40 MLOAD PUSH32 0x8C379A000000000000000000000000000000000000000000000000000000000 DUP2 MSTORE PUSH1 0x4 ADD PUSH2 0x1D1 SWAP1 PUSH2 0x79C JUMP JUMPDEST PUSH1 0x40 MLOAD DUP1 SWAP2 SUB SWAP1 REVERT JUMPDEST PUSH1 0x0 PUSH1 0x3 DUP2 GT ISZERO PUSH2 0x1EE JUMPI PUSH2 0x1ED PUSH2 0x4B6 JUMP JUMPDEST JUMPDEST PUSH1 0x1 DUP4 PUSH1 0x40 MLOAD PUSH2 0x1FE SWAP2 SWAP1 PUSH2 0x696 JUMP JUMPDEST SWAP1 DUP2 MSTORE PUSH1 0x20 ADD PUSH1 0x40 MLOAD DUP1 SWAP2 SUB SWAP1 KECCAK256 PUSH1 0x0 SWAP1 SLOAD SWAP1 PUSH2 0x100 EXP SWAP1 DIV PUSH1 0xFF AND PUSH1 0x3 DUP2 GT ISZERO PUSH2 0x22C JUMPI PUSH2 0x22B PUSH2 0x4B6 JUMP JUMPDEST JUMPDEST EQ PUSH2 0x26C JUMPI PUSH1 0x40 MLOAD PUSH32 0x8C379A000000000000000000000000000000000000000000000000000000000 DUP2 MSTORE PUSH1 0x4 ADD PUSH2 0x263 SWAP1 PUSH2 0x808 JUMP JUMPDEST PUSH1 0x40 MLOAD DUP1 SWAP2 SUB SWAP1 REVERT JUMPDEST DUP1 PUSH1 0x1 DUP4 PUSH1 0x40 MLOAD PUSH2 0x27D SWAP2 SWAP1 PUSH2 0x696 JUMP JUMPDEST SWAP1 DUP2 MSTORE PUSH1 0x20 ADD PUSH1 0x40 MLOAD DUP1 SWAP2 SUB SWAP1 KECCAK256 PUSH1 0x0 PUSH2 0x100 EXP DUP2 SLOAD DUP2 PUSH1 0xFF MUL NOT AND SWAP1 DUP4 PUSH1 0x3 DUP2 GT ISZERO PUSH2 0x2AD JUMPI PUSH2 0x2AC PUSH2 0x4B6 JUMP JUMPDEST JUMPDEST MUL OR SWAP1 SSTORE POP PUSH32 0xC8B4254C7A21DB264CE2CCA69CCE1C6214A7A7DC6C0E2BA97199A38C91FB4797 DUP3 DUP3 PUSH1 0x40 MLOAD PUSH2 0x2E3 SWAP3 SWAP2 SWAP1 PUSH2 0x861 JUMP JUMPDEST PUSH1 0x40 MLOAD DUP1 SWAP2 SUB SWAP1 LOG1 POP POP JUMP JUMPDEST PUSH1 0x0 DUP1 SLOAD SWAP1 PUSH2 0x100 EXP SWAP1 DIV PUSH20 0xFFFFFFFFFFFFFFFFFFFFFFFFFFFFFFFFFFFFFFFF AND DUP2 JUMP JUMPDEST PUSH1 0x0 PUSH1 0x40 MLOAD SWAP1 POP SWAP1 JUMP JUMPDEST PUSH1 0x0 DUP1 REVERT JUMPDEST PUSH1 0x0 DUP1 REVERT JUMPDEST PUSH1 0x0 DUP1 REVERT JUMPDEST PUSH1 0x0 DUP1 REVERT JUMPDEST PUSH1 0x0 PUSH1 0x1F NOT PUSH1 0x1F DUP4 ADD AND SWAP1 POP SWAP2 SWAP1 POP JUMP JUMPDEST PUSH32 0x4E487B7100000000000000000000000000000000000000000000000000000000 PUSH1 0x0 MSTORE PUSH1 0x41 PUSH1 0x4 MSTORE PUSH1 0x24 PUSH1 0x0 REVERT JUMPDEST PUSH2 0x37A DUP3 PUSH2 0x331 JUMP JUMPDEST DUP2 ADD DUP2 DUP2 LT PUSH8 0xFFFFFFFFFFFFFFFF DUP3 GT OR ISZERO PUSH2 0x399 JUMPI PUSH2 0x398 PUSH2 0x342 JUMP JUMPDEST JUMPDEST DUP1 PUSH1 0x40 MSTORE POP POP POP JUMP JUMPDEST PUSH1 0x0 PUSH2 0x3AC PUSH2 0x313 JUMP JUMPDEST SWAP1 POP PUSH2 0x3B8 DUP3 DUP3 PUSH2 0x371 JUMP JUMPDEST SWAP2 SWAP1 POP JUMP JUMPDEST PUSH1 0x0 PUSH8 0xFFFFFFFFFFFFFFFF DUP3 GT ISZERO PUSH2 0x3D8 JUMPI PUSH2 0x3D7 PUSH2 0x342 JUMP JUMPDEST JUMPDEST PUSH2 0x3E1 DUP3 PUSH2 0x331 JUMP JUMPDEST SWAP1 POP PUSH1 0x20 DUP2 ADD SWAP1 POP SWAP2 SWAP1 POP JUMP JUMPDEST DUP3 DUP2 DUP4 CALLDATACOPY PUSH1 0x0 DUP4 DUP4 ADD MSTORE POP POP POP JUMP JUMPDEST PUSH1 0x0 PUSH2 0x410 PUSH2 0x40B DUP5 PUSH2 0x3BD JUMP JUMPDEST PUSH2 0x3A2 JUMP JUMPDEST SWAP1 POP DUP3 DUP2 MSTORE PUSH1 0x20 DUP2 ADD DUP5 DUP5 DUP5 ADD GT ISZERO PUSH2 0x42C JUMPI PUSH2 0x42B PUSH2 0x32C JUMP JUMPDEST JUMPDEST PUSH2 0x437 DUP5 DUP3 DUP6 PUSH2 0x3EE JUMP JUMPDEST POP SWAP4 SWAP3 POP POP POP JUMP JUMPDEST PUSH1 0x0 DUP3 PUSH1 0x1F DUP4 ADD SLT PUSH2 0x454 JUMPI PUSH2 0x453 PUSH2 0x327 JUMP JUMPDEST JUMPDEST DUP2 CALLDATALOAD PUSH2 0x464 DUP5 DUP3 PUSH1 0x20 DUP7 ADD PUSH2 0x3FD JUMP JUMPDEST SWAP2 POP POP SWAP3 SWAP2 POP POP JUMP JUMPDEST PUSH1 0x0 PUSH1 0x20 DUP3 DUP5 SUB SLT ISZERO PUSH2 0x483 JUMPI PUSH2 0x482 PUSH2 0x31D JUMP JUMPDEST JUMPDEST PUSH1 0x0 DUP3 ADD CALLDATALOAD PUSH8 0xFFFFFFFFFFFFFFFF DUP2 GT ISZERO PUSH2 0x4A1 JUMPI PUSH2 0x4A0 PUSH2 0x322 JUMP JUMPDEST JUMPDEST PUSH2 0x4AD DUP5 DUP3 DUP6 ADD PUSH2 0x43F JUMP JUMPDEST SWAP2 POP POP SWAP3 SWAP2 POP POP JUMP JUMPDEST PUSH32 0x4E487B7100000000000000000000000000000000000000000000000000000000 PUSH1 0x0 MSTORE PUSH1 0x21 PUSH1 0x4 MSTORE PUSH1 0x24 PUSH1 0x0 REVERT JUMPDEST PUSH1 0x4 DUP2 LT PUSH2 0x4F6 JUMPI PUSH2 0x4F5 PUSH2 0x4B6 JUMP JUMPDEST JUMPDEST POP JUMP JUMPDEST PUSH1 0x0 DUP2 SWAP1 POP PUSH2 0x507 DUP3 PUSH2 0x4E5 JUMP JUMPDEST SWAP2 SWAP1 POP JUMP JUMPDEST PUSH1 0x0 PUSH2 0x517 DUP3 PUSH2 0x4F9 JUMP JUMPDEST SWAP1 POP SWAP2 SWAP1 POP JUMP JUMPDEST PUSH2 0x527 DUP2 PUSH2 0x50C JUMP JUMPDEST DUP3 MSTORE POP POP JUMP JUMPDEST PUSH1 0x0 PUSH1 0x20 DUP3 ADD SWAP1 POP PUSH2 0x542 PUSH1 0x0 DUP4 ADD DUP5 PUSH2 0x51E JUMP JUMPDEST SWAP3 SWAP2 POP POP JUMP JUMPDEST PUSH1 0x4 DUP2 LT PUSH2 0x555 JUMPI PUSH1 0x0 DUP1 REVERT JUMPDEST POP JUMP JUMPDEST PUSH1 0x0 DUP2 CALLDATALOAD SWAP1 POP PUSH2 0x567 DUP2 PUSH2 0x548 JUMP JUMPDEST SWAP3 SWAP2 POP POP JUMP JUMPDEST PUSH1 0x0 DUP1 PUSH1 0x40 DUP4 DUP6 SUB SLT ISZERO PUSH2 0x584 JUMPI PUSH2 0x583 PUSH2 0x31D JUMP JUMPDEST JUMPDEST PUSH1 0x0 DUP4 ADD CALLDATALOAD PUSH8 0xFFFFFFFFFFFFFFFF DUP2 GT ISZERO PUSH2 0x5A2 JUMPI PUSH2 0x5A1 PUSH2 0x322 JUMP JUMPDEST JUMPDEST PUSH2 0x5AE DUP6 DUP3 DUP7 ADD PUSH2 0x43F JUMP JUMPDEST SWAP3 POP POP PUSH1 0x20 PUSH2 0x5BF DUP6 DUP3 DUP7 ADD PUSH2 0x558 JUMP JUMPDEST SWAP2 POP POP SWAP3 POP SWAP3 SWAP1 POP JUMP JUMPDEST PUSH1 0x0 PUSH20 0xFFFFFFFFFFFFFFFFFFFFFFFFFFFFFFFFFFFFFFFF DUP3 AND SWAP1 POP SWAP2 SWAP1 POP JUMP JUMPDEST PUSH1 0x0 PUSH2 0x5F4 DUP3 PUSH2 0x5C9 JUMP JUMPDEST SWAP1 POP SWAP2 SWAP1 POP JUMP JUMPDEST PUSH2 0x604 DUP2 PUSH2 0x5E9 JUMP JUMPDEST DUP3 MSTORE POP POP JUMP JUMPDEST PUSH1 0x0 PUSH1 0x20 DUP3 ADD SWAP1 POP PUSH2 0x61F PUSH1 0x0 DUP4 ADD DUP5 PUSH2 0x5FB JUMP JUMPDEST SWAP3 SWAP2 POP POP JUMP JUMPDEST PUSH1 0x0 DUP2 MLOAD SWAP1 POP SWAP2 SWAP1 POP JUMP JUMPDEST PUSH1 0x0 DUP2 SWAP1 POP SWAP3 SWAP2 POP POP JUMP JUMPDEST PUSH1 0x0 JUMPDEST DUP4 DUP2 LT ISZERO PUSH2 0x659 JUMPI DUP1 DUP3 ADD MLOAD DUP2 DUP5 ADD MSTORE PUSH1 0x20 DUP2 ADD SWAP1 POP PUSH2 0x63E JUMP JUMPDEST PUSH1 0x0 DUP5 DUP5 ADD MSTORE POP POP POP POP JUMP JUMPDEST PUSH1 0x0 PUSH2 0x670 DUP3 PUSH2 0x625 JUMP JUMPDEST PUSH2 0x67A DUP2 DUP6 PUSH2 0x630 JUMP JUMPDEST SWAP4 POP PUSH2 0x68A DUP2 DUP6 PUSH1 0x20 DUP7 ADD PUSH2 0x63B JUMP JUMPDEST DUP1 DUP5 ADD SWAP2 POP POP SWAP3 SWAP2 POP POP JUMP JUMPDEST PUSH1 0x0 PUSH2 0x6A2 DUP3 DUP5 PUSH2 0x665 JUMP JUMPDEST SWAP2 POP DUP2 SWAP1 POP SWAP3 SWAP2 POP POP JUMP JUMPDEST PUSH1 0x0 DUP3 DUP3 MSTORE PUSH1 0x20 DUP3 ADD SWAP1 POP SWAP3 SWAP2 POP POP JUMP JUMPDEST PUSH32 0x4F6E6C792061646D696E2063616E20706572666F726D20746869732061637469 PUSH1 0x0 DUP3 ADD MSTORE PUSH32 0x6F6E000000000000000000000000000000000000000000000000000000000000 PUSH1 0x20 DUP3 ADD MSTORE POP JUMP JUMPDEST PUSH1 0x0 PUSH2 0x71A PUSH1 0x22 DUP4 PUSH2 0x6AD JUMP JUMPDEST SWAP2 POP PUSH2 0x725 DUP3 PUSH2 0x6BE JUMP JUMPDEST PUSH1 0x40 DUP3 ADD SWAP1 POP SWAP2 SWAP1 POP JUMP JUMPDEST PUSH1 0x0 PUSH1 0x20 DUP3 ADD SWAP1 POP DUP2 DUP2 SUB PUSH1 0x0 DUP4 ADD MSTORE PUSH2 0x749 DUP2 PUSH2 0x70D JUMP JUMPDEST SWAP1 POP SWAP2 SWAP1 POP JUMP JUMPDEST PUSH32 0x496E76616C696420726F6C650000000000000000000000000000000000000000 PUSH1 0x0 DUP3 ADD MSTORE POP JUMP JUMPDEST PUSH1 0x0 PUSH2 0x786 PUSH1 0xC DUP4 PUSH2 0x6AD JUMP JUMPDEST SWAP2 POP PUSH2 0x791 DUP3 PUSH2 0x750 JUMP JUMPDEST PUSH1 0x20 DUP3 ADD SWAP1 POP SWAP2 SWAP1 POP JUMP JUMPDEST PUSH1 0x0 PUSH1 0x20 DUP3 ADD SWAP1 POP DUP2 DUP2 SUB PUSH1 0x0 DUP4 ADD MSTORE PUSH2 0x7B5 DUP2 PUSH2 0x779 JUMP JUMPDEST SWAP1 POP SWAP2 SWAP1 POP JUMP JUMPDEST PUSH32 0x526F6C6520616C72656164792061737369676E65640000000000000000000000 PUSH1 0x0 DUP3 ADD MSTORE POP JUMP JUMPDEST PUSH1 0x0 PUSH2 0x7F2 PUSH1 0x15 DUP4 PUSH2 0x6AD JUMP JUMPDEST SWAP2 POP PUSH2 0x7FD DUP3 PUSH2 0x7BC JUMP JUMPDEST PUSH1 0x20 DUP3 ADD SWAP1 POP SWAP2 SWAP1 POP JUMP JUMPDEST PUSH1 0x0 PUSH1 0x20 DUP3 ADD SWAP1 POP DUP2 DUP2 SUB PUSH1 0x0 DUP4 ADD MSTORE PUSH2 0x821 DUP2 PUSH2 0x7E5 JUMP JUMPDEST SWAP1 POP SWAP2 SWAP1 POP JUMP JUMPDEST PUSH1 0x0 PUSH2 0x833 DUP3 PUSH2 0x625 JUMP JUMPDEST PUSH2 0x83D DUP2 DUP6 PUSH2 0x6AD JUMP JUMPDEST SWAP4 POP PUSH2 0x84D DUP2 DUP6 PUSH1 0x20 DUP7 ADD PUSH2 0x63B JUMP JUMPDEST PUSH2 0x856 DUP2 PUSH2 0x331 JUMP JUMPDEST DUP5 ADD SWAP2 POP POP SWAP3 SWAP2 POP POP JUMP JUMPDEST PUSH1 0x0 PUSH1 0x40 DUP3 ADD SWAP1 POP DUP2 DUP2 SUB PUSH1 0x0 DUP4 ADD MSTORE PUSH2 0x87B DUP2 DUP6 PUSH2 0x828 JUMP JUMPDEST SWAP1 POP PUSH2 0x88A PUSH1 0x20 DUP4 ADD DUP5 PUSH2 0x51E JUMP JUMPDEST SWAP4 SWAP3 POP POP POP JUMP INVALID LOG2 PUSH5 0x6970667358 0x22 SLT KECCAK256 0xAE CALLVALUE 0xFC 0xC 0x4D PUSH5 0x8F8AA84C1F 0xB7 PUSH10 0x8747DCB945D7F8416537 0xD4 0x5D SDIV SIGNEXTEND 0x5C SWAP13 GAS CALLER LOG2 PUSH5 0x736F6C6343 STOP ADDMOD EQ STOP CALLER "},"methodIdentifiers":{"admin()":"f851a440","assignRole(string,uint8)":"bef26911","getUserRole(string)":"357e129e"}}}}}