{"contracts/ContractManager.sol":{"ContractManager":{"abi":[{"inputs":[],"stateMutability":"nonpayable","type":"constructor"},{"anonymous":false,"inputs":[{"indexed":true,"internalType":"uint256","name":"index","type":"uint256"},{"indexed":false,"internalType":"address","name":"contractAddress","type":"address"},{"indexed":false,"internalType":"uint256","name":"time","type":"uint256"}],"name":"ContractDeactivated","type":"event"},{"anonymous":false,"inputs":[{"indexed":false,"internalType":"string","name":"name","type":"string"},{"indexed":false,"internalType":"address","name":"contractAddress","type":"address"},{"indexed":false,"internalType":"uint256","name":"deployedAt","type":"uint256"}],"name":"ContractRegistered","type":"event"},{"inputs":[],"name":"admin","outputs":[{"internalType":"address","name":"","type":"address"}],"stateMutability":"view","type":"function"},{"inputs":[{"internalType":"uint256","name":"","type":"uint256"}],"name":"contracts","outputs":[{"internalType":"string","name":"name","type":"string"},{"internalType":"address","name":"contractAddress","type":"address"},{"internalType":"uint256","name":"deployedAt","type":"uint256"},{"internalType":"bool","name":"isActive","type":"bool"}],"stateMutability":"view","type":"function"},{"inputs":[{"internalType":"uint256","name":"index","type":"uint256"}],"name":"deactivateContract","outputs":[],"stateMutability":"nonpayable","type":"function"},{"inputs":[],"name":"getAllContracts","outputs":[{"components":[{"internalType":"string","name":"name","type":"string"},{"internalType":"address","name":"contractAddress","type":"address"},{"internalType":"uint256","name":"deployedAt","type":"uint256"},{"internalType":"bool","name":"isActive","type":"bool"}],"internalType":"struct ContractManager.ContractInfo[]","name":"","type":"tuple[]"}],"stateMutability":"view","type":"function"},{"inputs":[{"internalType":"uint256","name":"index","type":"uint256"}],"name":"getContract","outputs":[{"components":[{"internalType":"string","name":"name","type":"string"},{"internalType":"address","name":"contractAddress","type":"address"},{"internalType":"uint256","name":"deployedAt","type":"uint256"},{"internalType":"bool","name":"isActive","type":"bool"}],"internalType":"struct ContractManager.ContractInfo","name":"","type":"tuple"}],"stateMutability":"view","type":"function"},{"inputs":[],"name":"getTotalContracts","outputs":[{"internalType":"uint256","name":"","type":"uint256"}],"stateMutability":"view","type":"function"},{"inputs":[{"internalType":"string","name":"name","type":"string"},{"internalType":"address","name":"contractAddress","type":"address"}],"name":"registerContract","outputs":[],"stateMutability":"nonpayable","type":"function"}],"evm":{"bytecode":{"linkReferences":{},"object":"608060405234801561001057600080fd5b50336000806101000a81548173ffffffffffffffffffffffffffffffffffffffff021916908373ffffffffffffffffffffffffffffffffffffffff1602179055506113c5806100606000396000f3fe608060405234801561001057600080fd5b506004361061007d5760003560e01c8063534860cc1161005b578063534860cc146100ef5780636ebc8c861461010d5780637f3c2c281461013d578063f851a440146101595761007d565b806318d3ce961461008257806322a45cd0146100a0578063474da79a146100bc575b600080fd5b61008a610177565b6040516100979190610b53565b60405180910390f35b6100ba60048036038101906100b59190610bb5565b6102e3565b005b6100d660048036038101906100d19190610bb5565b610478565b6040516100e69493929190610c59565b60405180910390f35b6100f761056d565b6040516101049190610ca5565b60405180910390f35b61012760048036038101906101229190610bb5565b61057a565b6040516101349190610d23565b60405180910390f35b61015760048036038101906101529190610ea6565b61070a565b005b6101616108c5565b60405161016e9190610f02565b60405180910390f35b60606001805480602002602001604051908101604052809291908181526020016000905b828210156102da57838290600052602060002090600402016040518060800160405290816000820180546101ce90610f4c565b80601f01602080910402602001604051908101604052809291908181526020018280546101fa90610f4c565b80156102475780601f1061021c57610100808354040283529160200191610247565b820191906000526020600020905b81548152906001019060200180831161022a57829003601f168201915b505050505081526020016001820160009054906101000a900473ffffffffffffffffffffffffffffffffffffffff1673ffffffffffffffffffffffffffffffffffffffff1673ffffffffffffffffffffffffffffffffffffffff168152602001600282015481526020016003820160009054906101000a900460ff1615151515815250508152602001906001019061019b565b50505050905090565b60008054906101000a900473ffffffffffffffffffffffffffffffffffffffff1673ffffffffffffffffffffffffffffffffffffffff163373ffffffffffffffffffffffffffffffffffffffff1614610371576040517f08c379a000000000000000000000000000000000000000000000000000000000815260040161036890610fef565b60405180910390fd5b60018054905081106103b8576040517f08c379a00000000000000000000000000000000000000000000000000000000081526004016103af9061105b565b60405180910390fd5b6000600182815481106103ce576103cd61107b565b5b906000526020600020906004020160030160006101000a81548160ff021916908315150217905550807f2d49a907374b8c281ad2cae693b1f4e407b7e613c542bf47662e6cb0f3f146096001838154811061042c5761042b61107b565b5b906000526020600020906004020160010160009054906101000a900473ffffffffffffffffffffffffffffffffffffffff164260405161046d9291906110aa565b60405180910390a250565b6001818154811061048857600080fd5b90600052602060002090600402016000915090508060000180546104ab90610f4c565b80601f01602080910402602001604051908101604052809291908181526020018280546104d790610f4c565b80156105245780601f106104f957610100808354040283529160200191610524565b820191906000526020600020905b81548152906001019060200180831161050757829003601f168201915b5050505050908060010160009054906101000a900473ffffffffffffffffffffffffffffffffffffffff16908060020154908060030160009054906101000a900460ff16905084565b6000600180549050905090565b6105826108e9565b60018054905082106105c9576040517f08c379a00000000000000000000000000000000000000000000000000000000081526004016105c09061105b565b60405180910390fd5b600182815481106105dd576105dc61107b565b5b906000526020600020906004020160405180608001604052908160008201805461060690610f4c565b80601f016020809104026020016040519081016040528092919081815260200182805461063290610f4c565b801561067f5780601f106106545761010080835404028352916020019161067f565b820191906000526020600020905b81548152906001019060200180831161066257829003601f168201915b505050505081526020016001820160009054906101000a900473ffffffffffffffffffffffffffffffffffffffff1673ffffffffffffffffffffffffffffffffffffffff1673ffffffffffffffffffffffffffffffffffffffff168152602001600282015481526020016003820160009054906101000a900460ff1615151515815250509050919050565b60008054906101000a900473ffffffffffffffffffffffffffffffffffffffff1673ffffffffffffffffffffffffffffffffffffffff163373ffffffffffffffffffffffffffffffffffffffff1614610798576040517f08c379a000000000000000000000000000000000000000000000000000000000815260040161078f90610fef565b60405180910390fd5b600160405180608001604052808481526020018373ffffffffffffffffffffffffffffffffffffffff1681526020014281526020016001151581525090806001815401808255809150506001900390600052602060002090600402016000909190919091506000820151816000019081610812919061127f565b5060208201518160010160006101000a81548173ffffffffffffffffffffffffffffffffffffffff021916908373ffffffffffffffffffffffffffffffffffffffff1602179055506040820151816002015560608201518160030160006101000a81548160ff02191690831515021790555050507facc3964249736615494d259d4209c830f66483050b258957fd0929b3e7c7e9cb8282426040516108b993929190611351565b60405180910390a15050565b60008054906101000a900473ffffffffffffffffffffffffffffffffffffffff1681565b604051806080016040528060608152602001600073ffffffffffffffffffffffffffffffffffffffff168152602001600081526020016000151581525090565b600081519050919050565b600082825260208201905092915050565b6000819050602082019050919050565b600081519050919050565b600082825260208201905092915050565b60005b8381101561098f578082015181840152602081019050610974565b60008484015250505050565b6000601f19601f8301169050919050565b60006109b782610955565b6109c18185610960565b93506109d1818560208601610971565b6109da8161099b565b840191505092915050565b600073ffffffffffffffffffffffffffffffffffffffff82169050919050565b6000610a10826109e5565b9050919050565b610a2081610a05565b82525050565b6000819050919050565b610a3981610a26565b82525050565b60008115159050919050565b610a5481610a3f565b82525050565b60006080830160008301518482036000860152610a7782826109ac565b9150506020830151610a8c6020860182610a17565b506040830151610a9f6040860182610a30565b506060830151610ab26060860182610a4b565b508091505092915050565b6000610ac98383610a5a565b905092915050565b6000602082019050919050565b6000610ae982610929565b610af38185610934565b935083602082028501610b0585610945565b8060005b85811015610b415784840389528151610b228582610abd565b9450610b2d83610ad1565b925060208a01995050600181019050610b09565b50829750879550505050505092915050565b60006020820190508181036000830152610b6d8184610ade565b905092915050565b6000604051905090565b600080fd5b600080fd5b610b9281610a26565b8114610b9d57600080fd5b50565b600081359050610baf81610b89565b92915050565b600060208284031215610bcb57610bca610b7f565b5b6000610bd984828501610ba0565b91505092915050565b600082825260208201905092915050565b6000610bfe82610955565b610c088185610be2565b9350610c18818560208601610971565b610c218161099b565b840191505092915050565b610c3581610a05565b82525050565b610c4481610a26565b82525050565b610c5381610a3f565b82525050565b60006080820190508181036000830152610c738187610bf3565b9050610c826020830186610c2c565b610c8f6040830185610c3b565b610c9c6060830184610c4a565b95945050505050565b6000602082019050610cba6000830184610c3b565b92915050565b60006080830160008301518482036000860152610cdd82826109ac565b9150506020830151610cf26020860182610a17565b506040830151610d056040860182610a30565b506060830151610d186060860182610a4b565b508091505092915050565b60006020820190508181036000830152610d3d8184610cc0565b905092915050565b600080fd5b600080fd5b7f4e487b7100000000000000000000000000000000000000000000000000000000600052604160045260246000fd5b610d878261099b565b810181811067ffffffffffffffff82111715610da657610da5610d4f565b5b80604052505050565b6000610db9610b75565b9050610dc58282610d7e565b919050565b600067ffffffffffffffff821115610de557610de4610d4f565b5b610dee8261099b565b9050602081019050919050565b82818337600083830152505050565b6000610e1d610e1884610dca565b610daf565b905082815260208101848484011115610e3957610e38610d4a565b5b610e44848285610dfb565b509392505050565b600082601f830112610e6157610e60610d45565b5b8135610e71848260208601610e0a565b91505092915050565b610e8381610a05565b8114610e8e57600080fd5b50565b600081359050610ea081610e7a565b92915050565b60008060408385031215610ebd57610ebc610b7f565b5b600083013567ffffffffffffffff811115610edb57610eda610b84565b5b610ee785828601610e4c565b9250506020610ef885828601610e91565b9150509250929050565b6000602082019050610f176000830184610c2c565b92915050565b7f4e487b7100000000000000000000000000000000000000000000000000000000600052602260045260246000fd5b60006002820490506001821680610f6457607f821691505b602082108103610f7757610f76610f1d565b5b50919050565b7f4f6e6c792061646d696e2063616e20706572666f726d2074686973206163746960008201527f6f6e000000000000000000000000000000000000000000000000000000000000602082015250565b6000610fd9602283610be2565b9150610fe482610f7d565b604082019050919050565b6000602082019050818103600083015261100881610fcc565b9050919050565b7f496e76616c696420696e64657800000000000000000000000000000000000000600082015250565b6000611045600d83610be2565b91506110508261100f565b602082019050919050565b6000602082019050818103600083015261107481611038565b9050919050565b7f4e487b7100000000000000000000000000000000000000000000000000000000600052603260045260246000fd5b60006040820190506110bf6000830185610c2c565b6110cc6020830184610c3b565b9392505050565b60008190508160005260206000209050919050565b60006020601f8301049050919050565b600082821b905092915050565b6000600883026111357fffffffffffffffffffffffffffffffffffffffffffffffffffffffffffffffff826110f8565b61113f86836110f8565b95508019841693508086168417925050509392505050565b6000819050919050565b600061117c61117761117284610a26565b611157565b610a26565b9050919050565b6000819050919050565b61119683611161565b6111aa6111a282611183565b848454611105565b825550505050565b600090565b6111bf6111b2565b6111ca81848461118d565b505050565b5b818110156111ee576111e36000826111b7565b6001810190506111d0565b5050565b601f82111561123357611204816110d3565b61120d846110e8565b8101602085101561121c578190505b611230611228856110e8565b8301826111cf565b50505b505050565b600082821c905092915050565b600061125660001984600802611238565b1980831691505092915050565b600061126f8383611245565b9150826002028217905092915050565b61128882610955565b67ffffffffffffffff8111156112a1576112a0610d4f565b5b6112ab8254610f4c565b6112b68282856111f2565b600060209050601f8311600181146112e957600084156112d7578287015190505b6112e18582611263565b865550611349565b601f1984166112f7866110d3565b60005b8281101561131f578489015182556001820191506020850194506020810190506112fa565b8683101561133c5784890151611338601f891682611245565b8355505b6001600288020188555050505b505050505050565b6000606082019050818103600083015261136b8186610bf3565b905061137a6020830185610c2c565b6113876040830184610c3b565b94935050505056fea26469706673582212200d40a4c3429b87b2ce1afd502e7ad6bf8bb32d4d3d76be38c4081eb69266316b64736f6c63430008140033","opcodes":"PUSH1 0x80 PUSH1 0x40 MSTORE CALLVALUE DUP1 ISZERO PUSH2 0x10 JUMPI PUSH1 0x0 DUP1 REVERT JUMPDEST POP CALLER PUSH1 0x0 DUP1 PUSH2 0x100 EXP DUP2 SLOAD DUP2 PUSH20 0xFFFFFFFFFFFFFFFFFFFFFFFFFFFFFFFFFFFFFFFF MUL NOT AND SWAP1 DUP4 PUSH20 0xFFFFFFFFFFFFFFFFFFFFFFFFFFFFFFFFFFFFFFFF AND MUL OR SWAP1 SSTORE POP PUSH2 0x13C5 DUP1 PUSH2 0x60 PUSH1 0x0 CODECOPY PUSH1 0x0 RETURN INVALID PUSH1 0x80 PUSH1 0x40 MSTORE CALLVALUE DUP1 ISZERO PUSH2 0x10 JUMPI PUSH1 0x0 DUP1 REVERT JUMPDEST POP PUSH1 0x4 CALLDATASIZE LT PUSH2 0x7D JUMPI PUSH1 0x0 CALLDATALOAD PUSH1 0xE0 SHR DUP1 PUSH4 0x534860CC GT PUSH2 0x5B JUMPI DUP1 PUSH4 0x534860CC EQ PUSH2 0xEF JUMPI DUP1 PUSH4 0x6EBC8C86 EQ PUSH2 0x10D JUMPI DUP1 PUSH4 0x7F3C2C28 EQ PUSH2 0x13D JUMPI DUP1 PUSH4 0xF851A440 EQ PUSH2 0x159 JUMPI PUSH2 0x7D JUMP JUMPDEST DUP1 PUSH4 0x18D3CE96 EQ PUSH2 0x82 JUMPI DUP1 PUSH4 0x22A45CD0 EQ PUSH2 0xA0 JUMPI DUP1 PUSH4 0x474DA79A EQ PUSH2 0xBC JUMPI JUMPDEST PUSH1 0x0 DUP1 REVERT JUMPDEST PUSH2 0x8A PUSH2 0x177 JUMP JUMPDEST PUSH1 0x40 MLOAD PUSH2 0x97 SWAP2 SWAP1 PUSH2 0xB53 JUMP JUMPDEST PUSH1 0x40 MLOAD DUP1 SWAP2 SUB SWAP1 RETURN JUMPDEST PUSH2 0xBA PUSH1 0x4 DUP1 CALLDATASIZE SUB DUP2 ADD SWAP1 PUSH2 0xB5 SWAP2 SWAP1 PUSH2 0xBB5 JUMP JUMPDEST PUSH2 0x2E3 JUMP JUMPDEST STOP JUMPDEST PUSH2 0xD6 PUSH1 0x4 DUP1 CALLDATASIZE SUB DUP2 ADD SWAP1 PUSH2 0xD1 SWAP2 SWAP1 PUSH2 0xBB5 JUMP JUMPDEST PUSH2 0x478 JUMP JUMPDEST PUSH1 0x40 MLOAD PUSH2 0xE6 SWAP5 SWAP4 SWAP3 SWAP2 SWAP1 PUSH2 0xC59 JUMP JUMPDEST PUSH1 0x40 MLOAD DUP1 SWAP2 SUB SWAP1 RETURN JUMPDEST PUSH2 0xF7 PUSH2 0x56D JUMP JUMPDEST PUSH1 0x40 MLOAD PUSH2 0x104 SWAP2 SWAP1 PUSH2 0xCA5 JUMP JUMPDEST PUSH1 0x40 MLOAD DUP1 SWAP2 SUB SWAP1 RETURN JUMPDEST PUSH2 0x127 PUSH1 0x4 DUP1 CALLDATASIZE SUB DUP2 ADD SWAP1 PUSH2 0x122 SWAP2 SWAP1 PUSH2 0xBB5 JUMP JUMPDEST PUSH2 0x57A JUMP JUMPDEST PUSH1 0x40 MLOAD PUSH2 0x134 SWAP2 SWAP1 PUSH2 0xD23 JUMP JUMPDEST PUSH1 0x40 MLOAD DUP1 SWAP2 SUB SWAP1 RETURN JUMPDEST PUSH2 0x157 PUSH1 0x4 DUP1 CALLDATASIZE SUB DUP2 ADD SWAP1 PUSH2 0x152 SWAP2 SWAP1 PUSH2 0xEA6 JUMP JUMPDEST PUSH2 0x70A JUMP JUMPDEST STOP JUMPDEST PUSH2 0x161 PUSH2 0x8C5 JUMP JUMPDEST PUSH1 0x40 MLOAD PUSH2 0x16E SWAP2 SWAP1 PUSH2 0xF02 JUMP JUMPDEST PUSH1 0x40 MLOAD DUP1 SWAP2 SUB SWAP1 RETURN JUMPDEST PUSH1 0x60 PUSH1 0x1 DUP1 SLOAD DUP1 PUSH1 0x20 MUL PUSH1 0x20 ADD PUSH1 0x40 MLOAD SWAP1 DUP2 ADD PUSH1 0x40 MSTORE DUP1 SWAP3 SWAP2 SWAP1 DUP2 DUP2 MSTORE PUSH1 0x20 ADD PUSH1 0x0 SWAP1 JUMPDEST DUP3 DUP3 LT ISZERO PUSH2 0x2DA JUMPI DUP4 DUP3 SWAP1 PUSH1 0x0 MSTORE PUSH1 0x20 PUSH1 0x0 KECCAK256 SWAP1 PUSH1 0x4 MUL ADD PUSH1 0x40 MLOAD DUP1 PUSH1 0x80 ADD PUSH1 0x40 MSTORE SWAP1 DUP2 PUSH1 0x0 DUP3 ADD DUP1 SLOAD PUSH2 0x1CE SWAP1 PUSH2 0xF4C JUMP JUMPDEST DUP1 PUSH1 0x1F ADD PUSH1 0x20 DUP1 SWAP2 DIV MUL PUSH1 0x20 ADD PUSH1 0x40 MLOAD SWAP1 DUP2 ADD PUSH1 0x40 MSTORE DUP1 SWAP3 SWAP2 SWAP1 DUP2 DUP2 MSTORE PUSH1 0x20 ADD DUP3 DUP1 SLOAD PUSH2 0x1FA SWAP1 PUSH2 0xF4C JUMP JUMPDEST DUP1 ISZERO PUSH2 0x247 JUMPI DUP1 PUSH1 0x1F LT PUSH2 0x21C JUMPI PUSH2 0x100 DUP1 DUP4 SLOAD DIV MUL DUP4 MSTORE SWAP2 PUSH1 0x20 ADD SWAP2 PUSH2 0x247 JUMP JUMPDEST DUP3 ADD SWAP2 SWAP1 PUSH1 0x0 MSTORE PUSH1 0x20 PUSH1 0x0 KECCAK256 SWAP1 JUMPDEST DUP2 SLOAD DUP2 MSTORE SWAP1 PUSH1 0x1 ADD SWAP1 PUSH1 0x20 ADD DUP1 DUP4 GT PUSH2 0x22A JUMPI DUP3 SWAP1 SUB PUSH1 0x1F AND DUP3 ADD SWAP2 JUMPDEST POP POP POP POP POP DUP2 MSTORE PUSH1 0x20 ADD PUSH1 0x1 DUP3 ADD PUSH1 0x0 SWAP1 SLOAD SWAP1 PUSH2 0x100 EXP SWAP1 DIV PUSH20 0xFFFFFFFFFFFFFFFFFFFFFFFFFFFFFFFFFFFFFFFF AND PUSH20 0xFFFFFFFFFFFFFFFFFFFFFFFFFFFFFFFFFFFFFFFF AND PUSH20 0xFFFFFFFFFFFFFFFFFFFFFFFFFFFFFFFFFFFFFFFF AND DUP2 MSTORE PUSH1 0x20 ADD PUSH1 0x2 DUP3 ADD SLOAD DUP2 MSTORE PUSH1 0x20 ADD PUSH1 0x3 DUP3 ADD PUSH1 0x0 SWAP1 SLOAD SWAP1 PUSH2 0x100 EXP SWAP1 DIV PUSH1 0xFF AND ISZERO ISZERO ISZERO ISZERO DUP2 MSTORE POP POP DUP2 MSTORE PUSH1 0x20 ADD SWAP1 PUSH1 0x1 ADD SWAP1 PUSH2 0x19B JUMP JUMPDEST POP POP POP POP SWAP1 POP SWAP1 JUMP JUMPDEST PUSH1 0x0 DUP1 SLOAD SWAP1 PUSH2 0x100 EXP SWAP1 DIV PUSH20 0xFFFFFFFFFFFFFFFFFFFFFFFFFFFFFFFFFFFFFFFF AND PUSH20 0xFFFFFFFFFFFFFFFFFFFFFFFFFFFFFFFFFFFFFFFF AND CALLER PUSH20 0xFFFFFFFFFFFFFFFFFFFFFFFFFFFFFFFFFFFFFFFF AND EQ PUSH2 0x371 JUMPI PUSH1 0x40 MLOAD PUSH32 0x8C379A000000000000000000000000000000000000000000000000000000000 DUP2 MSTORE PUSH1 0x4 ADD PUSH2 0x368 SWAP1 PUSH2 0xFEF JUMP JUMPDEST PUSH1 0x40 MLOAD DUP1 SWAP2 SUB SWAP1 REVERT JUMPDEST PUSH1 0x1 DUP1 SLOAD SWAP1 POP DUP2 LT PUSH2 0x3B8 JUMPI PUSH1 0x40 MLOAD PUSH32 0x8C379A000000000000000000000000000000000000000000000000000000000 DUP2 MSTORE PUSH1 0x4 ADD PUSH2 0x3AF SWAP1 PUSH2 0x105B JUMP JUMPDEST PUSH1 0x40 MLOAD DUP1 SWAP2 SUB SWAP1 REVERT JUMPDEST PUSH1 0x0 PUSH1 0x1 DUP3 DUP2 SLOAD DUP2 LT PUSH2 0x3CE JUMPI PUSH2 0x3CD PUSH2 0x107B JUMP JUMPDEST JUMPDEST SWAP1 PUSH1 0x0 MSTORE PUSH1 0x20 PUSH1 0x0 KECCAK256 SWAP1 PUSH1 0x4 MUL ADD PUSH1 0x3 ADD PUSH1 0x0 PUSH2 0x100 EXP DUP2 SLOAD DUP2 PUSH1 0xFF MUL NOT AND SWAP1 DUP4 ISZERO ISZERO MUL OR SWAP1 SSTORE POP DUP1 PUSH32 0x2D49A907374B8C281AD2CAE693B1F4E407B7E613C542BF47662E6CB0F3F14609 PUSH1 0x1 DUP4 DUP2 SLOAD DUP2 LT PUSH2 0x42C JUMPI PUSH2 0x42B PUSH2 0x107B JUMP JUMPDEST JUMPDEST SWAP1 PUSH1 0x0 MSTORE PUSH1 0x20 PUSH1 0x0 KECCAK256 SWAP1 PUSH1 0x4 MUL ADD PUSH1 0x1 ADD PUSH1 0x0 SWAP1 SLOAD SWAP1 PUSH2 0x100 EXP SWAP1 DIV PUSH20 0xFFFFFFFFFFFFFFFFFFFFFFFFFFFFFFFFFFFFFFFF AND TIMESTAMP PUSH1 0x40 MLOAD PUSH2 0x46D SWAP3 SWAP2 SWAP1 PUSH2 0x10AA JUMP JUMPDEST PUSH1 0x40 MLOAD DUP1 SWAP2 SUB SWAP1 LOG2 POP JUMP JUMPDEST PUSH1 0x1 DUP2 DUP2 SLOAD DUP2 LT PUSH2 0x488 JUMPI PUSH1 0x0 DUP1 REVERT JUMPDEST SWAP1 PUSH1 0x0 MSTORE PUSH1 0x20 PUSH1 0x0 KECCAK256 SWAP1 PUSH1 0x4 MUL ADD PUSH1 0x0 SWAP2 POP SWAP1 POP DUP1 PUSH1 0x0 ADD DUP1 SLOAD PUSH2 0x4AB SWAP1 PUSH2 0xF4C JUMP JUMPDEST DUP1 PUSH1 0x1F ADD PUSH1 0x20 DUP1 SWAP2 DIV MUL PUSH1 0x20 ADD PUSH1 0x40 MLOAD SWAP1 DUP2 ADD PUSH1 0x40 MSTORE DUP1 SWAP3 SWAP2 SWAP1 DUP2 DUP2 MSTORE PUSH1 0x20 ADD DUP3 DUP1 SLOAD PUSH2 0x4D7 SWAP1 PUSH2 0xF4C JUMP JUMPDEST DUP1 ISZERO PUSH2 0x524 JUMPI DUP1 PUSH1 0x1F LT PUSH2 0x4F9 JUMPI PUSH2 0x100 DUP1 DUP4 SLOAD DIV MUL DUP4 MSTORE SWAP2 PUSH1 0x20 ADD SWAP2 PUSH2 0x524 JUMP JUMPDEST DUP3 ADD SWAP2 SWAP1 PUSH1 0x0 MSTORE PUSH1 0x20 PUSH1 0x0 KECCAK256 SWAP1 JUMPDEST DUP2 SLOAD DUP2 MSTORE SWAP1 PUSH1 0x1 ADD SWAP1 PUSH1 0x20 ADD DUP1 DUP4 GT PUSH2 0x507 JUMPI DUP3 SWAP1 SUB PUSH1 0x1F AND DUP3 ADD SWAP2 JUMPDEST POP POP POP POP POP SWAP1 DUP1 PUSH1 0x1 ADD PUSH1 0x0 SWAP1 SLOAD SWAP1 PUSH2 0x100 EXP SWAP1 DIV PUSH20 0xFFFFFFFFFFFFFFFFFFFFFFFFFFFFFFFFFFFFFFFF AND SWAP1 DUP1 PUSH1 0x2 ADD SLOAD SWAP1 DUP1 PUSH1 0x3 ADD PUSH1 0x0 SWAP1 SLOAD SWAP1 PUSH2 0x100 EXP SWAP1 DIV PUSH1 0xFF AND SWAP1 POP DUP5 JUMP JUMPDEST PUSH1 0x0 PUSH1 0x1 DUP1 SLOAD SWAP1 POP SWAP1 POP SWAP1 JUMP JUMPDEST PUSH2 0x582 PUSH2 0x8E9 JUMP JUMPDEST PUSH1 0x1 DUP1 SLOAD SWAP1 POP DUP3 LT PUSH2 0x5C9 JUMPI PUSH1 0x40 MLOAD PUSH32 0x8C379A000000000000000000000000000000000000000000000000000000000 DUP2 MSTORE PUSH1 0x4 ADD PUSH2 0x5C0 SWAP1 PUSH2 0x105B JUMP JUMPDEST PUSH1 0x40 MLOAD DUP1 SWAP2 SUB SWAP1 REVERT JUMPDEST PUSH1 0x1 DUP3 DUP2 SLOAD DUP2 LT PUSH2 0x5DD JUMPI PUSH2 0x5DC PUSH2 0x107B JUMP JUMPDEST JUMPDEST SWAP1 PUSH1 0x0 MSTORE PUSH1 0x20 PUSH1 0x0 KECCAK256 SWAP1 PUSH1 0x4 MUL ADD PUSH1 0x40 MLOAD DUP1 PUSH1 0x80 ADD PUSH1 0x40 MSTORE SWAP1 DUP2 PUSH1 0x0 DUP3 ADD DUP1 SLOAD PUSH2 0x606 SWAP1 PUSH2 0xF4C JUMP JUMPDEST DUP1 PUSH1 0x1F ADD PUSH1 0x20 DUP1 SWAP2 DIV MUL PUSH1 0x20 ADD PUSH1 0x40 MLOAD SWAP1 DUP2 ADD PUSH1 0x40 MSTORE DUP1 SWAP3 SWAP2 SWAP1 DUP2 DUP2 MSTORE PUSH1 0x20 ADD DUP3 DUP1 SLOAD PUSH2 0x632 SWAP1 PUSH2 0xF4C JUMP JUMPDEST DUP1 ISZERO PUSH2 0x67F JUMPI DUP1 PUSH1 0x1F LT PUSH2 0x654 JUMPI PUSH2 0x100 DUP1 DUP4 SLOAD DIV MUL DUP4 MSTORE SWAP2 PUSH1 0x20 ADD SWAP2 PUSH2 0x67F JUMP JUMPDEST DUP3 ADD SWAP2 SWAP1 PUSH1 0x0 MSTORE PUSH1 0x20 PUSH1 0x0 KECCAK256 SWAP1 JUMPDEST DUP2 SLOAD DUP2 MSTORE SWAP1 PUSH1 0x1 ADD SWAP1 PUSH1 0x20 ADD DUP1 DUP4 GT PUSH2 0x662 JUMPI DUP3 SWAP1 SUB PUSH1 0x1F AND DUP3 ADD SWAP2 JUMPDEST POP POP POP POP POP DUP2 MSTORE PUSH1 0x20 ADD PUSH1 0x1 DUP3 ADD PUSH1 0x0 SWAP1 SLOAD SWAP1 PUSH2 0x100 EXP SWAP1 DIV PUSH20 0xFFFFFFFFFFFFFFFFFFFFFFFFFFFFFFFFFFFFFFFF AND PUSH20 0xFFFFFFFFFFFFFFFFFFFFFFFFFFFFFFFFFFFFFFFF AND PUSH20 0xFFFFFFFFFFFFFFFFFFFFFFFFFFFFFFFFFFFFFFFF AND DUP2 MSTORE PUSH1 0x20 ADD PUSH1 0x2 DUP3 ADD SLOAD DUP2 MSTORE PUSH1 0x20 ADD PUSH1 0x3 DUP3 ADD PUSH1 0x0 SWAP1 SLOAD SWAP1 PUSH2 0x100 EXP SWAP1 DIV PUSH1 0xFF AND ISZERO ISZERO ISZERO ISZERO DUP2 MSTORE POP POP SWAP1 POP SWAP2 SWAP1 POP JUMP JUMPDEST PUSH1 0x0 DUP1 SLOAD SWAP1 PUSH2 0x100 EXP SWAP1 DIV PUSH20 0xFFFFFFFFFFFFFFFFFFFFFFFFFFFFFFFFFFFFFFFF AND PUSH20 0xFFFFFFFFFFFFFFFFFFFFFFFFFFFFFFFFFFFFFFFF AND CALLER PUSH20 0xFFFFFFFFFFFFFFFFFFFFFFFFFFFFFFFFFFFFFFFF AND EQ PUSH2 0x798 JUMPI PUSH1 0x40 MLOAD PUSH32 0x8C379A000000000000000000000000000000000000000000000000000000000 DUP2 MSTORE PUSH1 0x4 ADD PUSH2 0x78F SWAP1 PUSH2 0xFEF JUMP JUMPDEST PUSH1 0x40 MLOAD DUP1 SWAP2 SUB SWAP1 REVERT JUMPDEST PUSH1 0x1 PUSH1 0x40 MLOAD DUP1 PUSH1 0x80 ADD PUSH1 0x40 MSTORE DUP1 DUP5 DUP2 MSTORE PUSH1 0x20 ADD DUP4 PUSH20 0xFFFFFFFFFFFFFFFFFFFFFFFFFFFFFFFFFFFFFFFF AND DUP2 MSTORE PUSH1 0x20 ADD TIMESTAMP DUP2 MSTORE PUSH1 0x20 ADD PUSH1 0x1 ISZERO ISZERO DUP2 MSTORE POP SWAP1 DUP1 PUSH1 0x1 DUP2 SLOAD ADD DUP1 DUP3 SSTORE DUP1 SWAP2 POP POP PUSH1 0x1 SWAP1 SUB SWAP1 PUSH1 0x0 MSTORE PUSH1 0x20 PUSH1 0x0 KECCAK256 SWAP1 PUSH1 0x4 MUL ADD PUSH1 0x0 SWAP1 SWAP2 SWAP1 SWAP2 SWAP1 SWAP2 POP PUSH1 0x0 DUP3 ADD MLOAD DUP2 PUSH1 0x0 ADD SWAP1 DUP2 PUSH2 0x812 SWAP2 SWAP1 PUSH2 0x127F JUMP JUMPDEST POP PUSH1 0x20 DUP3 ADD MLOAD DUP2 PUSH1 0x1 ADD PUSH1 0x0 PUSH2 0x100 EXP DUP2 SLOAD DUP2 PUSH20 0xFFFFFFFFFFFFFFFFFFFFFFFFFFFFFFFFFFFFFFFF MUL NOT AND SWAP1 DUP4 PUSH20 0xFFFFFFFFFFFFFFFFFFFFFFFFFFFFFFFFFFFFFFFF AND MUL OR SWAP1 SSTORE POP PUSH1 0x40 DUP3 ADD MLOAD DUP2 PUSH1 0x2 ADD SSTORE PUSH1 0x60 DUP3 ADD MLOAD DUP2 PUSH1 0x3 ADD PUSH1 0x0 PUSH2 0x100 EXP DUP2 SLOAD DUP2 PUSH1 0xFF MUL NOT AND SWAP1 DUP4 ISZERO ISZERO MUL OR SWAP1 SSTORE POP POP POP PUSH32 0xACC3964249736615494D259D4209C830F66483050B258957FD0929B3E7C7E9CB DUP3 DUP3 TIMESTAMP PUSH1 0x40 MLOAD PUSH2 0x8B9 SWAP4 SWAP3 SWAP2 SWAP1 PUSH2 0x1351 JUMP JUMPDEST PUSH1 0x40 MLOAD DUP1 SWAP2 SUB SWAP1 LOG1 POP POP JUMP JUMPDEST PUSH1 0x0 DUP1 SLOAD SWAP1 PUSH2 0x100 EXP SWAP1 DIV PUSH20 0xFFFFFFFFFFFFFFFFFFFFFFFFFFFFFFFFFFFFFFFF AND DUP2 JUMP JUMPDEST PUSH1 0x40 MLOAD DUP1 PUSH1 0x80 ADD PUSH1 0x40 MSTORE DUP1 PUSH1 0x60 DUP2 MSTORE PUSH1 0x20 ADD PUSH1 0x0 PUSH20 0xFFFFFFFFFFFFFFFFFFFFFFFFFFFFFFFFFFFFFFFF AND DUP2 MSTORE PUSH1 0x20 ADD PUSH1 0x0 DUP2 MSTORE PUSH1 0x20 ADD PUSH1 0x0 ISZERO ISZERO DUP2 MSTORE POP SWAP1 JUMP JUMPDEST PUSH1 0x0 DUP2 MLOAD SWAP1 POP SWAP2 SWAP1 POP JUMP JUMPDEST PUSH1 0x0 DUP3 DUP3 MSTORE PUSH1 0x20 DUP3 ADD SWAP1 POP SWAP3 SWAP2 POP POP JUMP JUMPDEST PUSH1 0x0 DUP2 SWAP1 POP PUSH1 0x20 DUP3 ADD SWAP1 POP SWAP2 SWAP1 POP JUMP JUMPDEST PUSH1 0x0 DUP2 MLOAD SWAP1 POP SWAP2 SWAP1 POP JUMP JUMPDEST PUSH1 0x0 DUP3 DUP3 MSTORE PUSH1 0x20 DUP3 ADD SWAP1 POP SWAP3 SWAP2 POP POP JUMP JUMPDEST PUSH1 0x0 JUMPDEST DUP4 DUP2 LT ISZERO PUSH2 0x98F JUMPI DUP1 DUP3 ADD MLOAD DUP2 DUP5 ADD MSTORE PUSH1 0x20 DUP2 ADD SWAP1 POP PUSH2 0x974 JUMP JUMPDEST PUSH1 0x0 DUP5 DUP5 ADD MSTORE POP POP POP POP JUMP JUMPDEST PUSH1 0x0 PUSH1 0x1F NOT PUSH1 0x1F DUP4 ADD AND SWAP1 POP SWAP2 SWAP1 POP JUMP JUMPDEST PUSH1 0x0 PUSH2 0x9B7 DUP3 PUSH2 0x955 JUMP JUMPDEST PUSH2 0x9C1 DUP2 DUP6 PUSH2 0x960 JUMP JUMPDEST SWAP4 POP PUSH2 0x9D1 DUP2 DUP6 PUSH1 0x20 DUP7 ADD PUSH2 0x971 JUMP JUMPDEST PUSH2 0x9DA DUP2 PUSH2 0x99B JUMP JUMPDEST DUP5 ADD SWAP2 POP POP SWAP3 SWAP2 POP POP JUMP JUMPDEST PUSH1 0x0 PUSH20 0xFFFFFFFFFFFFFFFFFFFFFFFFFFFFFFFFFFFFFFFF DUP3 AND SWAP1 POP SWAP2 SWAP1 POP JUMP JUMPDEST PUSH1 0x0 PUSH2 0xA10 DUP3 PUSH2 0x9E5 JUMP JUMPDEST SWAP1 POP SWAP2 SWAP1 POP JUMP JUMPDEST PUSH2 0xA20 DUP2 PUSH2 0xA05 JUMP JUMPDEST DUP3 MSTORE POP POP JUMP JUMPDEST PUSH1 0x0 DUP2 SWAP1 POP SWAP2 SWAP1 POP JUMP JUMPDEST PUSH2 0xA39 DUP2 PUSH2 0xA26 JUMP JUMPDEST DUP3 MSTORE POP POP JUMP JUMPDEST PUSH1 0x0 DUP2 ISZERO ISZERO SWAP1 POP SWAP2 SWAP1 POP JUMP JUMPDEST PUSH2 0xA54 DUP2 PUSH2 0xA3F JUMP JUMPDEST DUP3 MSTORE POP POP JUMP JUMPDEST PUSH1 0x0 PUSH1 0x80 DUP4 ADD PUSH1 0x0 DUP4 ADD MLOAD DUP5 DUP3 SUB PUSH1 0x0 DUP7 ADD MSTORE PUSH2 0xA77 DUP3 DUP3 PUSH2 0x9AC JUMP JUMPDEST SWAP2 POP POP PUSH1 0x20 DUP4 ADD MLOAD PUSH2 0xA8C PUSH1 0x20 DUP7 ADD DUP3 PUSH2 0xA17 JUMP JUMPDEST POP PUSH1 0x40 DUP4 ADD MLOAD PUSH2 0xA9F PUSH1 0x40 DUP7 ADD DUP3 PUSH2 0xA30 JUMP JUMPDEST POP PUSH1 0x60 DUP4 ADD MLOAD PUSH2 0xAB2 PUSH1 0x60 DUP7 ADD DUP3 PUSH2 0xA4B JUMP JUMPDEST POP DUP1 SWAP2 POP POP SWAP3 SWAP2 POP POP JUMP JUMPDEST PUSH1 0x0 PUSH2 0xAC9 DUP4 DUP4 PUSH2 0xA5A JUMP JUMPDEST SWAP1 POP SWAP3 SWAP2 POP POP JUMP JUMPDEST PUSH1 0x0 PUSH1 0x20 DUP3 ADD SWAP1 POP SWAP2 SWAP1 POP JUMP JUMPDEST PUSH1 0x0 PUSH2 0xAE9 DUP3 PUSH2 0x929 JUMP JUMPDEST PUSH2 0xAF3 DUP2 DUP6 PUSH2 0x934 JUMP JUMPDEST SWAP4 POP DUP4 PUSH1 0x20 DUP3 MUL DUP6 ADD PUSH2 0xB05 DUP6 PUSH2 0x945 JUMP JUMPDEST DUP1 PUSH1 0x0 JUMPDEST DUP6 DUP2 LT ISZERO PUSH2 0xB41 JUMPI DUP5 DUP5 SUB DUP10 MSTORE DUP2 MLOAD PUSH2 0xB22 DUP6 DUP3 PUSH2 0xABD JUMP JUMPDEST SWAP5 POP PUSH2 0xB2D DUP4 PUSH2 0xAD1 JUMP JUMPDEST SWAP3 POP PUSH1 0x20 DUP11 ADD SWAP10 POP POP PUSH1 0x1 DUP2 ADD SWAP1 POP PUSH2 0xB09 JUMP JUMPDEST POP DUP3 SWAP8 POP DUP8 SWAP6 POP POP POP POP POP POP SWAP3 SWAP2 POP POP JUMP JUMPDEST PUSH1 0x0 PUSH1 0x20 DUP3 ADD SWAP1 POP DUP2 DUP2 SUB PUSH1 0x0 DUP4 ADD MSTORE PUSH2 0xB6D DUP2 DUP5 PUSH2 0xADE JUMP JUMPDEST SWAP1 POP SWAP3 SWAP2 POP POP JUMP JUMPDEST PUSH1 0x0 PUSH1 0x40 MLOAD SWAP1 POP SWAP1 JUMP JUMPDEST PUSH1 0x0 DUP1 REVERT JUMPDEST PUSH1 0x0 DUP1 REVERT JUMPDEST PUSH2 0xB92 DUP2 PUSH2 0xA26 JUMP JUMPDEST DUP2 EQ PUSH2 0xB9D JUMPI PUSH1 0x0 DUP1 REVERT JUMPDEST POP JUMP JUMPDEST PUSH1 0x0 DUP2 CALLDATALOAD SWAP1 POP PUSH2 0xBAF DUP2 PUSH2 0xB89 JUMP JUMPDEST SWAP3 SWAP2 POP POP JUMP JUMPDEST PUSH1 0x0 PUSH1 0x20 DUP3 DUP5 SUB SLT ISZERO PUSH2 0xBCB JUMPI PUSH2 0xBCA PUSH2 0xB7F JUMP JUMPDEST JUMPDEST PUSH1 0x0 PUSH2 0xBD9 DUP5 DUP3 DUP6 ADD PUSH2 0xBA0 JUMP JUMPDEST SWAP2 POP POP SWAP3 SWAP2 POP POP JUMP JUMPDEST PUSH1 0x0 DUP3 DUP3 MSTORE PUSH1 0x20 DUP3 ADD SWAP1 POP SWAP3 SWAP2 POP POP JUMP JUMPDEST PUSH1 0x0 PUSH2 0xBFE DUP3 PUSH2 0x955 JUMP JUMPDEST PUSH2 0xC08 DUP2 DUP6 PUSH2 0xBE2 JUMP JUMPDEST SWAP4 POP PUSH2 0xC18 DUP2 DUP6 PUSH1 0x20 DUP7 ADD PUSH2 0x971 JUMP JUMPDEST PUSH2 0xC21 DUP2 PUSH2 0x99B JUMP JUMPDEST DUP5 ADD SWAP2 POP POP SWAP3 SWAP2 POP POP JUMP JUMPDEST PUSH2 0xC35 DUP2 PUSH2 0xA05 JUMP JUMPDEST DUP3 MSTORE POP POP JUMP JUMPDEST PUSH2 0xC44 DUP2 PUSH2 0xA26 JUMP JUMPDEST DUP3 MSTORE POP POP JUMP JUMPDEST PUSH2 0xC53 DUP2 PUSH2 0xA3F JUMP JUMPDEST DUP3 MSTORE POP POP JUMP JUMPDEST PUSH1 0x0 PUSH1 0x80 DUP3 ADD SWAP1 POP DUP2 DUP2 SUB PUSH1 0x0 DUP4 ADD MSTORE PUSH2 0xC73 DUP2 DUP8 PUSH2 0xBF3 JUMP JUMPDEST SWAP1 POP PUSH2 0xC82 PUSH1 0x20 DUP4 ADD DUP7 PUSH2 0xC2C JUMP JUMPDEST PUSH2 0xC8F PUSH1 0x40 DUP4 ADD DUP6 PUSH2 0xC3B JUMP JUMPDEST PUSH2 0xC9C PUSH1 0x60 DUP4 ADD DUP5 PUSH2 0xC4A JUMP JUMPDEST SWAP6 SWAP5 POP POP POP POP POP JUMP JUMPDEST PUSH1 0x0 PUSH1 0x20 DUP3 ADD SWAP1 POP PUSH2 0xCBA PUSH1 0x0 DUP4 ADD DUP5 PUSH2 0xC3B JUMP JUMPDEST SWAP3 SWAP2 POP POP JUMP JUMPDEST PUSH1 0x0 PUSH1 0x80 DUP4 ADD PUSH1 0x0 DUP4 ADD MLOAD DUP5 DUP3 SUB PUSH1 0x0 DUP7 ADD MSTORE PUSH2 0xCDD DUP3 DUP3 PUSH2 0x9AC JUMP JUMPDEST SWAP2 POP POP PUSH1 0x20 DUP4 ADD MLOAD PUSH2 0xCF2 PUSH1 0x20 DUP7 ADD DUP3 PUSH2 0xA17 JUMP JUMPDEST POP PUSH1 0x40 DUP4 ADD MLOAD PUSH2 0xD05 PUSH1 0x40 DUP7 ADD DUP3 PUSH2 0xA30 JUMP JUMPDEST POP PUSH1 0x60 DUP4 ADD MLOAD PUSH2 0xD18 PUSH1 0x60 DUP7 ADD DUP3 PUSH2 0xA4B JUMP JUMPDEST POP DUP1 SWAP2 POP POP SWAP3 SWAP2 POP POP JUMP JUMPDEST PUSH1 0x0 PUSH1 0x20 DUP3 ADD SWAP1 POP DUP2 DUP2 SUB PUSH1 0x0 DUP4 ADD MSTORE PUSH2 0xD3D DUP2 DUP5 PUSH2 0xCC0 JUMP JUMPDEST SWAP1 POP SWAP3 SWAP2 POP POP JUMP JUMPDEST PUSH1 0x0 DUP1 REVERT JUMPDEST PUSH1 0x0 DUP1 REVERT JUMPDEST PUSH32 0x4E487B7100000000000000000000000000000000000000000000000000000000 PUSH1 0x0 MSTORE PUSH1 0x41 PUSH1 0x4 MSTORE PUSH1 0x24 PUSH1 0x0 REVERT JUMPDEST PUSH2 0xD87 DUP3 PUSH2 0x99B JUMP JUMPDEST DUP2 ADD DUP2 DUP2 LT PUSH8 0xFFFFFFFFFFFFFFFF DUP3 GT OR ISZERO PUSH2 0xDA6 JUMPI PUSH2 0xDA5 PUSH2 0xD4F JUMP JUMPDEST JUMPDEST DUP1 PUSH1 0x40 MSTORE POP POP POP JUMP JUMPDEST PUSH1 0x0 PUSH2 0xDB9 PUSH2 0xB75 JUMP JUMPDEST SWAP1 POP PUSH2 0xDC5 DUP3 DUP3 PUSH2 0xD7E JUMP JUMPDEST SWAP2 SWAP1 POP JUMP JUMPDEST PUSH1 0x0 PUSH8 0xFFFFFFFFFFFFFFFF DUP3 GT ISZERO PUSH2 0xDE5 JUMPI PUSH2 0xDE4 PUSH2 0xD4F JUMP JUMPDEST JUMPDEST PUSH2 0xDEE DUP3 PUSH2 0x99B JUMP JUMPDEST SWAP1 POP PUSH1 0x20 DUP2 ADD SWAP1 POP SWAP2 SWAP1 POP JUMP JUMPDEST DUP3 DUP2 DUP4 CALLDATACOPY PUSH1 0x0 DUP4 DUP4 ADD MSTORE POP POP POP JUMP JUMPDEST PUSH1 0x0 PUSH2 0xE1D PUSH2 0xE18 DUP5 PUSH2 0xDCA JUMP JUMPDEST PUSH2 0xDAF JUMP JUMPDEST SWAP1 POP DUP3 DUP2 MSTORE PUSH1 0x20 DUP2 ADD DUP5 DUP5 DUP5 ADD GT ISZERO PUSH2 0xE39 JUMPI PUSH2 0xE38 PUSH2 0xD4A JUMP JUMPDEST JUMPDEST PUSH2 0xE44 DUP5 DUP3 DUP6 PUSH2 0xDFB JUMP JUMPDEST POP SWAP4 SWAP3 POP POP POP JUMP JUMPDEST PUSH1 0x0 DUP3 PUSH1 0x1F DUP4 ADD SLT PUSH2 0xE61 JUMPI PUSH2 0xE60 PUSH2 0xD45 JUMP JUMPDEST JUMPDEST DUP2 CALLDATALOAD PUSH2 0xE71 DUP5 DUP3 PUSH1 0x20 DUP7 ADD PUSH2 0xE0A JUMP JUMPDEST SWAP2 POP POP SWAP3 SWAP2 POP POP JUMP JUMPDEST PUSH2 0xE83 DUP2 PUSH2 0xA05 JUMP JUMPDEST DUP2 EQ PUSH2 0xE8E JUMPI PUSH1 0x0 DUP1 REVERT JUMPDEST POP JUMP JUMPDEST PUSH1 0x0 DUP2 CALLDATALOAD SWAP1 POP PUSH2 0xEA0 DUP2 PUSH2 0xE7A JUMP JUMPDEST SWAP3 SWAP2 POP POP JUMP JUMPDEST PUSH1 0x0 DUP1 PUSH1 0x40 DUP4 DUP6 SUB SLT ISZERO PUSH2 0xEBD JUMPI PUSH2 0xEBC PUSH2 0xB7F JUMP JUMPDEST JUMPDEST PUSH1 0x0 DUP4 ADD CALLDATALOAD PUSH8 0xFFFFFFFFFFFFFFFF DUP2 GT ISZERO PUSH2 0xEDB JUMPI PUSH2 0xEDA PUSH2 0xB84 JUMP JUMPDEST JUMPDEST PUSH2 0xEE7 DUP6 DUP3 DUP7 ADD PUSH2 0xE4C JUMP JUMPDEST SWAP3 POP POP PUSH1 0x20 PUSH2 0xEF8 DUP6 DUP3 DUP7 ADD PUSH2 0xE91 JUMP JUMPDEST SWAP2 POP POP SWAP3 POP SWAP3 SWAP1 POP JUMP JUMPDEST PUSH1 0x0 PUSH1 0x20 DUP3 ADD SWAP1 POP PUSH2 0xF17 PUSH1 0x0 DUP4 ADD DUP5 PUSH2 0xC2C JUMP JUMPDEST SWAP3 SWAP2 POP POP JUMP JUMPDEST PUSH32 0x4E487B7100000000000000000000000000000000000000000000000000000000 PUSH1 0x0 MSTORE PUSH1 0x22 PUSH1 0x4 MSTORE PUSH1 0x24 PUSH1 0x0 REVERT JUMPDEST PUSH1 0x0 PUSH1 0x2 DUP3 DIV SWAP1 POP PUSH1 0x1 DUP3 AND DUP1 PUSH2 0xF64 JUMPI PUSH1 0x7F DUP3 AND SWAP2 POP JUMPDEST PUSH1 0x20 DUP3 LT DUP2 SUB PUSH2 0xF77 JUMPI PUSH2 0xF76 PUSH2 0xF1D JUMP JUMPDEST JUMPDEST POP SWAP2 SWAP1 POP JUMP JUMPDEST PUSH32 0x4F6E6C792061646D696E2063616E20706572666F726D20746869732061637469 PUSH1 0x0 DUP3 ADD MSTORE PUSH32 0x6F6E000000000000000000000000000000000000000000000000000000000000 PUSH1 0x20 DUP3 ADD MSTORE POP JUMP JUMPDEST PUSH1 0x0 PUSH2 0xFD9 PUSH1 0x22 DUP4 PUSH2 0xBE2 JUMP JUMPDEST SWAP2 POP PUSH2 0xFE4 DUP3 PUSH2 0xF7D JUMP JUMPDEST PUSH1 0x40 DUP3 ADD SWAP1 POP SWAP2 SWAP1 POP JUMP JUMPDEST PUSH1 0x0 PUSH1 0x20 DUP3 ADD SWAP1 POP DUP2 DUP2 SUB PUSH1 0x0 DUP4 ADD MSTORE PUSH2 0x1008 DUP2 PUSH2 0xFCC JUMP JUMPDEST SWAP1 POP SWAP2 SWAP1 POP JUMP JUMPDEST PUSH32 0x496E76616C696420696E64657800000000000000000000000000000000000000 PUSH1 0x0 DUP3 ADD MSTORE POP JUMP JUMPDEST PUSH1 0x0 PUSH2 0x1045 PUSH1 0xD DUP4 PUSH2 0xBE2 JUMP JUMPDEST SWAP2 POP PUSH2 0x1050 DUP3 PUSH2 0x100F JUMP JUMPDEST PUSH1 0x20 DUP3 ADD SWAP1 POP SWAP2 SWAP1 POP JUMP JUMPDEST PUSH1 0x0 PUSH1 0x20 DUP3 ADD SWAP1 POP DUP2 DUP2 SUB PUSH1 0x0 DUP4 ADD MSTORE PUSH2 0x1074 DUP2 PUSH2 0x1038 JUMP JUMPDEST SWAP1 POP SWAP2 SWAP1 POP JUMP JUMPDEST PUSH32 0x4E487B7100000000000000000000000000000000000000000000000000000000 PUSH1 0x0 MSTORE PUSH1 0x32 PUSH1 0x4 MSTORE PUSH1 0x24 PUSH1 0x0 REVERT JUMPDEST PUSH1 0x0 PUSH1 0x40 DUP3 ADD SWAP1 POP PUSH2 0x10BF PUSH1 0x0 DUP4 ADD DUP6 PUSH2 0xC2C JUMP JUMPDEST PUSH2 0x10CC PUSH1 0x20 DUP4 ADD DUP5 PUSH2 0xC3B JUMP JUMPDEST SWAP4 SWAP3 POP POP POP JUMP JUMPDEST PUSH1 0x0 DUP2 SWAP1 POP DUP2 PUSH1 0x0 MSTORE PUSH1 0x20 PUSH1 0x0 KECCAK256 SWAP1 POP SWAP2 SWAP1 POP JUMP JUMPDEST PUSH1 0x0 PUSH1 0x20 PUSH1 0x1F DUP4 ADD DIV SWAP1 POP SWAP2 SWAP1 POP JUMP JUMPDEST PUSH1 0x0 DUP3 DUP3 SHL SWAP1 POP SWAP3 SWAP2 POP POP JUMP JUMPDEST PUSH1 0x0 PUSH1 0x8 DUP4 MUL PUSH2 0x1135 PUSH32 0xFFFFFFFFFFFFFFFFFFFFFFFFFFFFFFFFFFFFFFFFFFFFFFFFFFFFFFFFFFFFFFFF DUP3 PUSH2 0x10F8 JUMP JUMPDEST PUSH2 0x113F DUP7 DUP4 PUSH2 0x10F8 JUMP JUMPDEST SWAP6 POP DUP1 NOT DUP5 AND SWAP4 POP DUP1 DUP7 AND DUP5 OR SWAP3 POP POP POP SWAP4 SWAP3 POP POP POP JUMP JUMPDEST PUSH1 0x0 DUP2 SWAP1 POP SWAP2 SWAP1 POP JUMP JUMPDEST PUSH1 0x0 PUSH2 0x117C PUSH2 0x1177 PUSH2 0x1172 DUP5 PUSH2 0xA26 JUMP JUMPDEST PUSH2 0x1157 JUMP JUMPDEST PUSH2 0xA26 JUMP JUMPDEST SWAP1 POP SWAP2 SWAP1 POP JUMP JUMPDEST PUSH1 0x0 DUP2 SWAP1 POP SWAP2 SWAP1 POP JUMP JUMPDEST PUSH2 0x1196 DUP4 PUSH2 0x1161 JUMP JUMPDEST PUSH2 0x11AA PUSH2 0x11A2 DUP3 PUSH2 0x1183 JUMP JUMPDEST DUP5 DUP5 SLOAD PUSH2 0x1105 JUMP JUMPDEST DUP3 SSTORE POP POP POP POP JUMP JUMPDEST PUSH1 0x0 SWAP1 JUMP JUMPDEST PUSH2 0x11BF PUSH2 0x11B2 JUMP JUMPDEST PUSH2 0x11CA DUP2 DUP5 DUP5 PUSH2 0x118D JUMP JUMPDEST POP POP POP JUMP JUMPDEST JUMPDEST DUP2 DUP2 LT ISZERO PUSH2 0x11EE JUMPI PUSH2 0x11E3 PUSH1 0x0 DUP3 PUSH2 0x11B7 JUMP JUMPDEST PUSH1 0x1 DUP2 ADD SWAP1 POP PUSH2 0x11D0 JUMP JUMPDEST POP POP JUMP JUMPDEST PUSH1 0x1F DUP3 GT ISZERO PUSH2 0x1233 JUMPI PUSH2 0x1204 DUP2 PUSH2 0x10D3 JUMP JUMPDEST PUSH2 0x120D DUP5 PUSH2 0x10E8 JUMP JUMPDEST DUP2 ADD PUSH1 0x20 DUP6 LT ISZERO PUSH2 0x121C JUMPI DUP2 SWAP1 POP JUMPDEST PUSH2 0x1230 PUSH2 0x1228 DUP6 PUSH2 0x10E8 JUMP JUMPDEST DUP4 ADD DUP3 PUSH2 0x11CF JUMP JUMPDEST POP POP JUMPDEST POP POP POP JUMP JUMPDEST PUSH1 0x0 DUP3 DUP3 SHR SWAP1 POP SWAP3 SWAP2 POP POP JUMP JUMPDEST PUSH1 0x0 PUSH2 0x1256 PUSH1 0x0 NOT DUP5 PUSH1 0x8 MUL PUSH2 0x1238 JUMP JUMPDEST NOT DUP1 DUP4 AND SWAP2 POP POP SWAP3 SWAP2 POP POP JUMP JUMPDEST PUSH1 0x0 PUSH2 0x126F DUP4 DUP4 PUSH2 0x1245 JUMP JUMPDEST SWAP2 POP DUP3 PUSH1 0x2 MUL DUP3 OR SWAP1 POP SWAP3 SWAP2 POP POP JUMP JUMPDEST PUSH2 0x1288 DUP3 PUSH2 0x955 JUMP JUMPDEST PUSH8 0xFFFFFFFFFFFFFFFF DUP2 GT ISZERO PUSH2 0x12A1 JUMPI PUSH2 0x12A0 PUSH2 0xD4F JUMP JUMPDEST JUMPDEST PUSH2 0x12AB DUP3 SLOAD PUSH2 0xF4C JUMP JUMPDEST PUSH2 0x12B6 DUP3 DUP3 DUP6 PUSH2 0x11F2 JUMP JUMPDEST PUSH1 0x0 PUSH1 0x20 SWAP1 POP PUSH1 0x1F DUP4 GT PUSH1 0x1 DUP2 EQ PUSH2 0x12E9 JUMPI PUSH1 0x0 DUP5 ISZERO PUSH2 0x12D7 JUMPI DUP3 DUP8 ADD MLOAD SWAP1 POP JUMPDEST PUSH2 0x12E1 DUP6 DUP3 PUSH2 0x1263 JUMP JUMPDEST DUP7 SSTORE POP PUSH2 0x1349 JUMP JUMPDEST PUSH1 0x1F NOT DUP5 AND PUSH2 0x12F7 DUP7 PUSH2 0x10D3 JUMP JUMPDEST PUSH1 0x0 JUMPDEST DUP3 DUP2 LT ISZERO PUSH2 0x131F JUMPI DUP5 DUP10 ADD MLOAD DUP3 SSTORE PUSH1 0x1 DUP3 ADD SWAP2 POP PUSH1 0x20 DUP6 ADD SWAP5 POP PUSH1 0x20 DUP2 ADD SWAP1 POP PUSH2 0x12FA JUMP JUMPDEST DUP7 DUP4 LT ISZERO PUSH2 0x133C JUMPI DUP5 DUP10 ADD MLOAD PUSH2 0x1338 PUSH1 0x1F DUP10 AND DUP3 PUSH2 0x1245 JUMP JUMPDEST DUP4 SSTORE POP JUMPDEST PUSH1 0x1 PUSH1 0x2 DUP9 MUL ADD DUP9 SSTORE POP POP POP JUMPDEST POP POP POP POP POP POP JUMP JUMPDEST PUSH1 0x0 PUSH1 0x60 DUP3 ADD SWAP1 POP DUP2 DUP2 SUB PUSH1 0x0 DUP4 ADD MSTORE PUSH2 0x136B DUP2 DUP7 PUSH2 0xBF3 JUMP JUMPDEST SWAP1 POP PUSH2 0x137A PUSH1 0x20 DUP4 ADD DUP6 PUSH2 0xC2C JUMP JUMPDEST PUSH2 0x1387 PUSH1 0x40 DUP4 ADD DUP5 PUSH2 0xC3B JUMP JUMPDEST SWAP5 SWAP4 POP POP POP POP JUMP INVALID LOG2 PUSH5 0x6970667358 0x22 SLT KECCAK256 0xD BLOCKHASH LOG4 0xC3 TIMESTAMP SWAP12 DUP8 0xB2 0xCE BYTE REVERT POP 0x2E PUSH27 0xD6BF8BB32D4D3D76BE38C4081EB69266316B64736F6C6343000814 STOP CALLER "},"methodIdentifiers":{"admin()":"f851a440","contracts(uint256)":"474da79a","deactivateContract(uint256)":"22a45cd0","getAllContracts()":"18d3ce96","getContract(uint256)":"6ebc8c86","getTotalContracts()":"534860cc","registerContract(string,address)":"7f3c2c28"}}}}}