{
  "_format": "hh-sol-artifact-1",
  "contractName": "HealthcareRBAC",
  "sourceName": "contracts/HealthcareRBAC.sol",
  "abi": [
    {
      "inputs": [],
      "stateMutability": "nonpayable",
      "type": "constructor"
    },
    {
      "anonymous": false,
      "inputs": [
        {
          "indexed": false,
          "internalType": "string",
          "name": "userId",
          "type": "string"
        },
        {
          "indexed": false,
          "internalType": "enum HealthcareRBAC.Role",
          "name": "role",
          "type": "uint8"
        }
      ],
      "name": "RoleAssigned",
      "type": "event"
    },
    {
      "inputs": [],
      "name": "admin",
      "outputs": [
        {
          "internalType": "address",
          "name": "",
          "type": "address"
        }
      ],
      "stateMutability": "view",
      "type": "function"
    },
    {
      "inputs": [
        {
          "internalType": "string",
          "name": "userId",
          "type": "string"
        },
        {
          "internalType": "enum HealthcareRBAC.Role",
          "name": "role",
          "type": "uint8"
        }
      ],
      "name": "assignRole",
      "outputs": [],
      "stateMutability": "nonpayable",
      "type": "function"
    },
    {
      "inputs": [
        {
          "internalType": "string",
          "name": "userId",
          "type": "string"
        }
      ],
      "name": "getUserRole",
      "outputs": [
        {
          "internalType": "enum HealthcareRBAC.Role",
          "name": "",
          "type": "uint8"
        }
      ],
      "stateMutability": "view",
      "type": "function"
    }
  ],
  "bytecode": "0x608060405234801561001057600080fd5b50336000806101000a81548173ffffffffffffffffffffffffffffffffffffffff021916908373ffffffffffffffffffffffffffffffffffffffff1602179055506108c7806100606000396000f3fe608060405234801561001057600080fd5b50600436106100415760003560e01c8063357e129e14610046578063bef2691114610076578063f851a44014610092575b600080fd5b610060600480360381019061005b919061046d565b6100b0565b60405161006d919061052d565b60405180910390f35b610090600480360381019061008b919061056d565b6100e5565b005b61009a6102ef565b6040516100a7919061060a565b60405180910390f35b60006001826040516100c29190610696565b908152602001604051809103902060009054906101000a900460ff169050919050565b60008054906101000a900473ffffffffffffffffffffffffffffffffffffffff1673ffffffffffffffffffffffffffffffffffffffff163373ffffffffffffffffffffffffffffffffffffffff1614610173576040517f08c379a000000000000000000000000000000000000000000000000000000000815260040161016a90610730565b60405180910390fd5b60006003811115610187576101866104b6565b5b81600381111561019a576101996104b6565b5b036101da576040517f08c379a00000000000000000000000000000000000000000000000000000000081526004016101d19061079c565b60405180910390fd5b600060038111156101ee576101ed6104b6565b5b6001836040516101fe9190610696565b908152602001604051809103902060009054906101000a900460ff16600381111561022c5761022b6104b6565b5b1461026c576040517f08c379a000000000000000000000000000000000000000000000000000000000815260040161026390610808565b60405180910390fd5b8060018360405161027d9190610696565b908152602001604051809103902060006101000a81548160ff021916908360038111156102ad576102ac6104b6565b5b02179055507fc8b4254c7a21db264ce2cca69cce1c6214a7a7dc6c0e2ba97199a38c91fb479782826040516102e3929190610861565b60405180910390a15050565b60008054906101000a900473ffffffffffffffffffffffffffffffffffffffff1681565b6000604051905090565b600080fd5b600080fd5b600080fd5b600080fd5b6000601f19601f8301169050919050565b7f4e487b7100000000000000000000000000000000000000000000000000000000600052604160045260246000fd5b61037a82610331565b810181811067ffffffffffffffff8211171561039957610398610342565b5b80604052505050565b60006103ac610313565b90506103b88282610371565b919050565b600067ffffffffffffffff8211156103d8576103d7610342565b5b6103e182610331565b9050602081019050919050565b82818337600083830152505050565b600061041061040b846103bd565b6103a2565b90508281526020810184848401111561042c5761042b61032c565b5b6104378482856103ee565b509392505050565b600082601f83011261045457610453610327565b5b81356104648482602086016103fd565b91505092915050565b6000602082840312156104835761048261031d565b5b600082013567ffffffffffffffff8111156104a1576104a0610322565b5b6104ad8482850161043f565b91505092915050565b7f4e487b7100000000000000000000000000000000000000000000000000000000600052602160045260246000fd5b600481106104f6576104f56104b6565b5b50565b6000819050610507826104e5565b919050565b6000610517826104f9565b9050919050565b6105278161050c565b82525050565b6000602082019050610542600083018461051e565b92915050565b6004811061055557600080fd5b50565b60008135905061056781610548565b92915050565b600080604083850312156105845761058361031d565b5b600083013567ffffffffffffffff8111156105a2576105a1610322565b5b6105ae8582860161043f565b92505060206105bf85828601610558565b9150509250929050565b600073ffffffffffffffffffffffffffffffffffffffff82169050919050565b60006105f4826105c9565b9050919050565b610604816105e9565b82525050565b600060208201905061061f60008301846105fb565b92915050565b600081519050919050565b600081905092915050565b60005b8381101561065957808201518184015260208101905061063e565b60008484015250505050565b600061067082610625565b61067a8185610630565b935061068a81856020860161063b565b80840191505092915050565b60006106a28284610665565b915081905092915050565b600082825260208201905092915050565b7f4f6e6c792061646d696e2063616e20706572666f726d2074686973206163746960008201527f6f6e000000000000000000000000000000000000000000000000000000000000602082015250565b600061071a6022836106ad565b9150610725826106be565b604082019050919050565b600060208201905081810360008301526107498161070d565b9050919050565b7f496e76616c696420726f6c650000000000000000000000000000000000000000600082015250565b6000610786600c836106ad565b915061079182610750565b602082019050919050565b600060208201905081810360008301526107b581610779565b9050919050565b7f526f6c6520616c72656164792061737369676e65640000000000000000000000600082015250565b60006107f26015836106ad565b91506107fd826107bc565b602082019050919050565b60006020820190508181036000830152610821816107e5565b9050919050565b600061083382610625565b61083d81856106ad565b935061084d81856020860161063b565b61085681610331565b840191505092915050565b6000604082019050818103600083015261087b8185610828565b905061088a602083018461051e565b939250505056fea2646970667358221220ae34fc0c4d648f8aa84c1fb7698747dcb945d7f8416537d45d050b5c9c5a33a264736f6c63430008140033",
  "linkReferences": {},
  "deployedLinkReferences": {}
}