{
  "_format": "hh-sol-artifact-1",
  "contractName": "ContractRegistry",
  "sourceName": "contracts/ContractRegistry.sol",
  "abi": [
    {
      "inputs": [],
      "stateMutability": "nonpayable",
      "type": "constructor"
    },
    {
      "anonymous": false,
      "inputs": [
        {
          "indexed": true,
          "internalType": "address",
          "name": "admin",
          "type": "address"
        },
        {
          "indexed": false,
          "internalType": "string",
          "name": "name",
          "type": "string"
        },
        {
          "indexed": false,
          "internalType": "address",
          "name": "contractAddress",
          "type": "address"
        },
        {
          "indexed": false,
          "internalType": "string",
          "name": "version",
          "type": "string"
        },
        {
          "indexed": false,
          "internalType": "string",
          "name": "reason",
          "type": "string"
        },
        {
          "indexed": false,
          "internalType": "uint256",
          "name": "timestamp",
          "type": "uint256"
        }
      ],
      "name": "ContractAdded",
      "type": "event"
    },
    {
      "inputs": [
        {
          "internalType": "string",
          "name": "name",
          "type": "string"
        },
        {
          "internalType": "address",
          "name": "contractAddress",
          "type": "address"
        },
        {
          "internalType": "string",
          "name": "version",
          "type": "string"
        },
        {
          "internalType": "string",
          "name": "reason",
          "type": "string"
        }
      ],
      "name": "addContract",
      "outputs": [],
      "stateMutability": "nonpayable",
      "type": "function"
    },
    {
      "inputs": [],
      "name": "admin",
      "outputs": [
        {
          "internalType": "address",
          "name": "",
          "type": "address"
        }
      ],
      "stateMutability": "view",
      "type": "function"
    },
    {
      "inputs": [
        {
          "internalType": "uint256",
          "name": "",
          "type": "uint256"
        }
      ],
      "name": "contracts",
      "outputs": [
        {
          "internalType": "string",
          "name": "name",
          "type": "string"
        },
        {
          "internalType": "address",
          "name": "contractAddress",
          "type": "address"
        },
        {
          "internalType": "string",
          "name": "version",
          "type": "string"
        },
        {
          "internalType": "bool",
          "name": "isActive",
          "type": "bool"
        },
        {
          "internalType": "uint256",
          "name": "timestamp",
          "type": "uint256"
        },
        {
          "internalType": "string",
          "name": "upgradeReason",
          "type": "string"
        }
      ],
      "stateMutability": "view",
      "type": "function"
    },
    {
      "inputs": [],
      "name": "getAllContracts",
      "outputs": [
        {
          "components": [
            {
              "internalType": "string",
              "name": "name",
              "type": "string"
            },
            {
              "internalType": "address",
              "name": "contractAddress",
              "type": "address"
            },
            {
              "internalType": "string",
              "name": "version",
              "type": "string"
            },
            {
              "internalType": "bool",
              "name": "isActive",
              "type": "bool"
            },
            {
              "internalType": "uint256",
              "name": "timestamp",
              "type": "uint256"
            },
            {
              "internalType": "string",
              "name": "upgradeReason",
              "type": "string"
            }
          ],
          "internalType": "struct ContractRegistry.ContractInfo[]",
          "name": "",
          "type": "tuple[]"
        }
      ],
      "stateMutability": "view",
      "type": "function"
    }
  ],
  "bytecode": "0x608060405234801561001057600080fd5b50336000806101000a81548173ffffffffffffffffffffffffffffffffffffffff021916908373ffffffffffffffffffffffffffffffffffffffff1602179055506111d2806100606000396000f3fe608060405234801561001057600080fd5b506004361061004c5760003560e01c806318d3ce9614610051578063474da79a1461006f57806382905fa3146100a4578063f851a440146100c0575b600080fd5b6100596100de565b6040516100669190610a37565b60405180910390f35b61008960048036038101906100849190610a99565b61036e565b60405161009b96959493929190610b3d565b60405180910390f35b6100be60048036038101906100b99190610d14565b61057f565b005b6100c86107b5565b6040516100d59190610dcf565b60405180910390f35b60606001805480602002602001604051908101604052809291908181526020016000905b8282101561036557838290600052602060002090600602016040518060c001604052908160008201805461013590610e19565b80601f016020809104026020016040519081016040528092919081815260200182805461016190610e19565b80156101ae5780601f10610183576101008083540402835291602001916101ae565b820191906000526020600020905b81548152906001019060200180831161019157829003601f168201915b505050505081526020016001820160009054906101000a900473ffffffffffffffffffffffffffffffffffffffff1673ffffffffffffffffffffffffffffffffffffffff1673ffffffffffffffffffffffffffffffffffffffff16815260200160028201805461021d90610e19565b80601f016020809104026020016040519081016040528092919081815260200182805461024990610e19565b80156102965780601f1061026b57610100808354040283529160200191610296565b820191906000526020600020905b81548152906001019060200180831161027957829003601f168201915b505050505081526020016003820160009054906101000a900460ff16151515158152602001600482015481526020016005820180546102d490610e19565b80601f016020809104026020016040519081016040528092919081815260200182805461030090610e19565b801561034d5780601f106103225761010080835404028352916020019161034d565b820191906000526020600020905b81548152906001019060200180831161033057829003601f168201915b50505050508152505081526020019060010190610102565b50505050905090565b6001818154811061037e57600080fd5b90600052602060002090600602016000915090508060000180546103a190610e19565b80601f01602080910402602001604051908101604052809291908181526020018280546103cd90610e19565b801561041a5780601f106103ef5761010080835404028352916020019161041a565b820191906000526020600020905b8154815290600101906020018083116103fd57829003601f168201915b5050505050908060010160009054906101000a900473ffffffffffffffffffffffffffffffffffffffff169080600201805461045590610e19565b80601f016020809104026020016040519081016040528092919081815260200182805461048190610e19565b80156104ce5780601f106104a3576101008083540402835291602001916104ce565b820191906000526020600020905b8154815290600101906020018083116104b157829003601f168201915b5050505050908060030160009054906101000a900460ff16908060040154908060050180546104fc90610e19565b80601f016020809104026020016040519081016040528092919081815260200182805461052890610e19565b80156105755780601f1061054a57610100808354040283529160200191610575565b820191906000526020600020905b81548152906001019060200180831161055857829003601f168201915b5050505050905086565b60008054906101000a900473ffffffffffffffffffffffffffffffffffffffff1673ffffffffffffffffffffffffffffffffffffffff163373ffffffffffffffffffffffffffffffffffffffff161461060d576040517f08c379a000000000000000000000000000000000000000000000000000000000815260040161060490610e96565b60405180910390fd5b60006040518060c001604052808681526020018573ffffffffffffffffffffffffffffffffffffffff168152602001848152602001600115158152602001428152602001838152509050600181908060018154018082558091505060019003906000526020600020906006020160009091909190915060008201518160000190816106989190611062565b5060208201518160010160006101000a81548173ffffffffffffffffffffffffffffffffffffffff021916908373ffffffffffffffffffffffffffffffffffffffff16021790555060408201518160020190816106f59190611062565b5060608201518160030160006101000a81548160ff0219169083151502179055506080820151816004015560a08201518160050190816107359190611062565b50505060008054906101000a900473ffffffffffffffffffffffffffffffffffffffff1673ffffffffffffffffffffffffffffffffffffffff167fdbb05c722f573c5e554f7be75f3fd8369e2ca7820922edaad2d8734f0a222ae086868686426040516107a6959493929190611134565b60405180910390a25050505050565b60008054906101000a900473ffffffffffffffffffffffffffffffffffffffff1681565b600081519050919050565b600082825260208201905092915050565b6000819050602082019050919050565b600081519050919050565b600082825260208201905092915050565b60005b8381101561083f578082015181840152602081019050610824565b60008484015250505050565b6000601f19601f8301169050919050565b600061086782610805565b6108718185610810565b9350610881818560208601610821565b61088a8161084b565b840191505092915050565b600073ffffffffffffffffffffffffffffffffffffffff82169050919050565b60006108c082610895565b9050919050565b6108d0816108b5565b82525050565b60008115159050919050565b6108eb816108d6565b82525050565b6000819050919050565b610904816108f1565b82525050565b600060c0830160008301518482036000860152610927828261085c565b915050602083015161093c60208601826108c7565b5060408301518482036040860152610954828261085c565b915050606083015161096960608601826108e2565b50608083015161097c60808601826108fb565b5060a083015184820360a0860152610994828261085c565b9150508091505092915050565b60006109ad838361090a565b905092915050565b6000602082019050919050565b60006109cd826107d9565b6109d781856107e4565b9350836020820285016109e9856107f5565b8060005b85811015610a255784840389528151610a0685826109a1565b9450610a11836109b5565b925060208a019950506001810190506109ed565b50829750879550505050505092915050565b60006020820190508181036000830152610a5181846109c2565b905092915050565b6000604051905090565b600080fd5b600080fd5b610a76816108f1565b8114610a8157600080fd5b50565b600081359050610a9381610a6d565b92915050565b600060208284031215610aaf57610aae610a63565b5b6000610abd84828501610a84565b91505092915050565b600082825260208201905092915050565b6000610ae282610805565b610aec8185610ac6565b9350610afc818560208601610821565b610b058161084b565b840191505092915050565b610b19816108b5565b82525050565b610b28816108d6565b82525050565b610b37816108f1565b82525050565b600060c0820190508181036000830152610b578189610ad7565b9050610b666020830188610b10565b8181036040830152610b788187610ad7565b9050610b876060830186610b1f565b610b946080830185610b2e565b81810360a0830152610ba68184610ad7565b9050979650505050505050565b600080fd5b600080fd5b7f4e487b7100000000000000000000000000000000000000000000000000000000600052604160045260246000fd5b610bf58261084b565b810181811067ffffffffffffffff82111715610c1457610c13610bbd565b5b80604052505050565b6000610c27610a59565b9050610c338282610bec565b919050565b600067ffffffffffffffff821115610c5357610c52610bbd565b5b610c5c8261084b565b9050602081019050919050565b82818337600083830152505050565b6000610c8b610c8684610c38565b610c1d565b905082815260208101848484011115610ca757610ca6610bb8565b5b610cb2848285610c69565b509392505050565b600082601f830112610ccf57610cce610bb3565b5b8135610cdf848260208601610c78565b91505092915050565b610cf1816108b5565b8114610cfc57600080fd5b50565b600081359050610d0e81610ce8565b92915050565b60008060008060808587031215610d2e57610d2d610a63565b5b600085013567ffffffffffffffff811115610d4c57610d4b610a68565b5b610d5887828801610cba565b9450506020610d6987828801610cff565b935050604085013567ffffffffffffffff811115610d8a57610d89610a68565b5b610d9687828801610cba565b925050606085013567ffffffffffffffff811115610db757610db6610a68565b5b610dc387828801610cba565b91505092959194509250565b6000602082019050610de46000830184610b10565b92915050565b7f4e487b7100000000000000000000000000000000000000000000000000000000600052602260045260246000fd5b60006002820490506001821680610e3157607f821691505b602082108103610e4457610e43610dea565b5b50919050565b7f4e6f7420617574686f72697a6564000000000000000000000000000000000000600082015250565b6000610e80600e83610ac6565b9150610e8b82610e4a565b602082019050919050565b60006020820190508181036000830152610eaf81610e73565b9050919050565b60008190508160005260206000209050919050565b60006020601f8301049050919050565b600082821b905092915050565b600060088302610f187fffffffffffffffffffffffffffffffffffffffffffffffffffffffffffffffff82610edb565b610f228683610edb565b95508019841693508086168417925050509392505050565b6000819050919050565b6000610f5f610f5a610f55846108f1565b610f3a565b6108f1565b9050919050565b6000819050919050565b610f7983610f44565b610f8d610f8582610f66565b848454610ee8565b825550505050565b600090565b610fa2610f95565b610fad818484610f70565b505050565b5b81811015610fd157610fc6600082610f9a565b600181019050610fb3565b5050565b601f82111561101657610fe781610eb6565b610ff084610ecb565b81016020851015610fff578190505b61101361100b85610ecb565b830182610fb2565b50505b505050565b600082821c905092915050565b60006110396000198460080261101b565b1980831691505092915050565b60006110528383611028565b9150826002028217905092915050565b61106b82610805565b67ffffffffffffffff81111561108457611083610bbd565b5b61108e8254610e19565b611099828285610fd5565b600060209050601f8311600181146110cc57600084156110ba578287015190505b6110c48582611046565b86555061112c565b601f1984166110da86610eb6565b60005b82811015611102578489015182556001820191506020850194506020810190506110dd565b8683101561111f578489015161111b601f891682611028565b8355505b6001600288020188555050505b505050505050565b600060a082019050818103600083015261114e8188610ad7565b905061115d6020830187610b10565b818103604083015261116f8186610ad7565b905081810360608301526111838185610ad7565b90506111926080830184610b2e565b969550505050505056fea2646970667358221220ecc6834435201d6c5d8fdb4bf9a31b0f525d187cfdd2701620a0e0a72c14fde264736f6c63430008140033",
  "linkReferences": {},
  "deployedLinkReferences": {}
}