{
  "_format": "hh-sol-artifact-1",
  "contractName": "ContractManager",
  "sourceName": "contracts/ContractManager.sol",
  "abi": [
    {
      "inputs": [],
      "stateMutability": "nonpayable",
      "type": "constructor"
    },
    {
      "anonymous": false,
      "inputs": [
        {
          "indexed": true,
          "internalType": "uint256",
          "name": "index",
          "type": "uint256"
        },
        {
          "indexed": false,
          "internalType": "address",
          "name": "contractAddress",
          "type": "address"
        },
        {
          "indexed": false,
          "internalType": "uint256",
          "name": "time",
          "type": "uint256"
        }
      ],
      "name": "ContractDeactivated",
      "type": "event"
    },
    {
      "anonymous": false,
      "inputs": [
        {
          "indexed": false,
          "internalType": "string",
          "name": "name",
          "type": "string"
        },
        {
          "indexed": false,
          "internalType": "address",
          "name": "contractAddress",
          "type": "address"
        },
        {
          "indexed": false,
          "internalType": "uint256",
          "name": "deployedAt",
          "type": "uint256"
        }
      ],
      "name": "ContractRegistered",
      "type": "event"
    },
    {
      "inputs": [],
      "name": "admin",
      "outputs": [
        {
          "internalType": "address",
          "name": "",
          "type": "address"
        }
      ],
      "stateMutability": "view",
      "type": "function"
    },
    {
      "inputs": [
        {
          "internalType": "uint256",
          "name": "",
          "type": "uint256"
        }
      ],
      "name": "contracts",
      "outputs": [
        {
          "internalType": "string",
          "name": "name",
          "type": "string"
        },
        {
          "internalType": "address",
          "name": "contractAddress",
          "type": "address"
        },
        {
          "internalType": "uint256",
          "name": "deployedAt",
          "type": "uint256"
        },
        {
          "internalType": "bool",
          "name": "isActive",
          "type": "bool"
        }
      ],
      "stateMutability": "view",
      "type": "function"
    },
    {
      "inputs": [
        {
          "internalType": "uint256",
          "name": "index",
          "type": "uint256"
        }
      ],
      "name": "deactivateContract",
      "outputs": [],
      "stateMutability": "nonpayable",
      "type": "function"
    },
    {
      "inputs": [],
      "name": "getAllContracts",
      "outputs": [
        {
          "components": [
            {
              "internalType": "string",
              "name": "name",
              "type": "string"
            },
            {
              "internalType": "address",
              "name": "contractAddress",
              "type": "address"
            },
            {
              "internalType": "uint256",
              "name": "deployedAt",
              "type": "uint256"
            },
            {
              "internalType": "bool",
              "name": "isActive",
              "type": "bool"
            }
          ],
          "internalType": "struct ContractManager.ContractInfo[]",
          "name": "",
          "type": "tuple[]"
        }
      ],
      "stateMutability": "view",
      "type": "function"
    },
    {
      "inputs": [
        {
          "internalType": "uint256",
          "name": "index",
          "type": "uint256"
        }
      ],
      "name": "getContract",
      "outputs": [
        {
          "components": [
            {
              "internalType": "string",
              "name": "name",
              "type": "string"
            },
            {
              "internalType": "address",
              "name": "contractAddress",
              "type": "address"
            },
            {
              "internalType": "uint256",
              "name": "deployedAt",
              "type": "uint256"
            },
            {
              "internalType": "bool",
              "name": "isActive",
              "type": "bool"
            }
          ],
          "internalType": "struct ContractManager.ContractInfo",
          "name": "",
          "type": "tuple"
        }
      ],
      "stateMutability": "view",
      "type": "function"
    },
    {
      "inputs": [],
      "name": "getTotalContracts",
      "outputs": [
        {
          "internalType": "uint256",
          "name": "",
          "type": "uint256"
        }
      ],
      "stateMutability": "view",
      "type": "function"
    },
    {
      "inputs": [
        {
          "internalType": "string",
          "name": "name",
          "type": "string"
        },
        {
          "internalType": "address",
          "name": "contractAddress",
          "type": "address"
        }
      ],
      "name": "registerContract",
      "outputs": [],
      "stateMutability": "nonpayable",
      "type": "function"
    }
  ],
  "bytecode": "0x608060405234801561001057600080fd5b50336000806101000a81548173ffffffffffffffffffffffffffffffffffffffff021916908373ffffffffffffffffffffffffffffffffffffffff1602179055506113c5806100606000396000f3fe608060405234801561001057600080fd5b506004361061007d5760003560e01c8063534860cc1161005b578063534860cc146100ef5780636ebc8c861461010d5780637f3c2c281461013d578063f851a440146101595761007d565b806318d3ce961461008257806322a45cd0146100a0578063474da79a146100bc575b600080fd5b61008a610177565b6040516100979190610b53565b60405180910390f35b6100ba60048036038101906100b59190610bb5565b6102e3565b005b6100d660048036038101906100d19190610bb5565b610478565b6040516100e69493929190610c59565b60405180910390f35b6100f761056d565b6040516101049190610ca5565b60405180910390f35b61012760048036038101906101229190610bb5565b61057a565b6040516101349190610d23565b60405180910390f35b61015760048036038101906101529190610ea6565b61070a565b005b6101616108c5565b60405161016e9190610f02565b60405180910390f35b60606001805480602002602001604051908101604052809291908181526020016000905b828210156102da57838290600052602060002090600402016040518060800160405290816000820180546101ce90610f4c565b80601f01602080910402602001604051908101604052809291908181526020018280546101fa90610f4c565b80156102475780601f1061021c57610100808354040283529160200191610247565b820191906000526020600020905b81548152906001019060200180831161022a57829003601f168201915b505050505081526020016001820160009054906101000a900473ffffffffffffffffffffffffffffffffffffffff1673ffffffffffffffffffffffffffffffffffffffff1673ffffffffffffffffffffffffffffffffffffffff168152602001600282015481526020016003820160009054906101000a900460ff1615151515815250508152602001906001019061019b565b50505050905090565b60008054906101000a900473ffffffffffffffffffffffffffffffffffffffff1673ffffffffffffffffffffffffffffffffffffffff163373ffffffffffffffffffffffffffffffffffffffff1614610371576040517f08c379a000000000000000000000000000000000000000000000000000000000815260040161036890610fef565b60405180910390fd5b60018054905081106103b8576040517f08c379a00000000000000000000000000000000000000000000000000000000081526004016103af9061105b565b60405180910390fd5b6000600182815481106103ce576103cd61107b565b5b906000526020600020906004020160030160006101000a81548160ff021916908315150217905550807f2d49a907374b8c281ad2cae693b1f4e407b7e613c542bf47662e6cb0f3f146096001838154811061042c5761042b61107b565b5b906000526020600020906004020160010160009054906101000a900473ffffffffffffffffffffffffffffffffffffffff164260405161046d9291906110aa565b60405180910390a250565b6001818154811061048857600080fd5b90600052602060002090600402016000915090508060000180546104ab90610f4c565b80601f01602080910402602001604051908101604052809291908181526020018280546104d790610f4c565b80156105245780601f106104f957610100808354040283529160200191610524565b820191906000526020600020905b81548152906001019060200180831161050757829003601f168201915b5050505050908060010160009054906101000a900473ffffffffffffffffffffffffffffffffffffffff16908060020154908060030160009054906101000a900460ff16905084565b6000600180549050905090565b6105826108e9565b60018054905082106105c9576040517f08c379a00000000000000000000000000000000000000000000000000000000081526004016105c09061105b565b60405180910390fd5b600182815481106105dd576105dc61107b565b5b906000526020600020906004020160405180608001604052908160008201805461060690610f4c565b80601f016020809104026020016040519081016040528092919081815260200182805461063290610f4c565b801561067f5780601f106106545761010080835404028352916020019161067f565b820191906000526020600020905b81548152906001019060200180831161066257829003601f168201915b505050505081526020016001820160009054906101000a900473ffffffffffffffffffffffffffffffffffffffff1673ffffffffffffffffffffffffffffffffffffffff1673ffffffffffffffffffffffffffffffffffffffff168152602001600282015481526020016003820160009054906101000a900460ff1615151515815250509050919050565b60008054906101000a900473ffffffffffffffffffffffffffffffffffffffff1673ffffffffffffffffffffffffffffffffffffffff163373ffffffffffffffffffffffffffffffffffffffff1614610798576040517f08c379a000000000000000000000000000000000000000000000000000000000815260040161078f90610fef565b60405180910390fd5b600160405180608001604052808481526020018373ffffffffffffffffffffffffffffffffffffffff1681526020014281526020016001151581525090806001815401808255809150506001900390600052602060002090600402016000909190919091506000820151816000019081610812919061127f565b5060208201518160010160006101000a81548173ffffffffffffffffffffffffffffffffffffffff021916908373ffffffffffffffffffffffffffffffffffffffff1602179055506040820151816002015560608201518160030160006101000a81548160ff02191690831515021790555050507facc3964249736615494d259d4209c830f66483050b258957fd0929b3e7c7e9cb8282426040516108b993929190611351565b60405180910390a15050565b60008054906101000a900473ffffffffffffffffffffffffffffffffffffffff1681565b604051806080016040528060608152602001600073ffffffffffffffffffffffffffffffffffffffff168152602001600081526020016000151581525090565b600081519050919050565b600082825260208201905092915050565b6000819050602082019050919050565b600081519050919050565b600082825260208201905092915050565b60005b8381101561098f578082015181840152602081019050610974565b60008484015250505050565b6000601f19601f8301169050919050565b60006109b782610955565b6109c18185610960565b93506109d1818560208601610971565b6109da8161099b565b840191505092915050565b600073ffffffffffffffffffffffffffffffffffffffff82169050919050565b6000610a10826109e5565b9050919050565b610a2081610a05565b82525050565b6000819050919050565b610a3981610a26565b82525050565b60008115159050919050565b610a5481610a3f565b82525050565b60006080830160008301518482036000860152610a7782826109ac565b9150506020830151610a8c6020860182610a17565b506040830151610a9f6040860182610a30565b506060830151610ab26060860182610a4b565b508091505092915050565b6000610ac98383610a5a565b905092915050565b6000602082019050919050565b6000610ae982610929565b610af38185610934565b935083602082028501610b0585610945565b8060005b85811015610b415784840389528151610b228582610abd565b9450610b2d83610ad1565b925060208a01995050600181019050610b09565b50829750879550505050505092915050565b60006020820190508181036000830152610b6d8184610ade565b905092915050565b6000604051905090565b600080fd5b600080fd5b610b9281610a26565b8114610b9d57600080fd5b50565b600081359050610baf81610b89565b92915050565b600060208284031215610bcb57610bca610b7f565b5b6000610bd984828501610ba0565b91505092915050565b600082825260208201905092915050565b6000610bfe82610955565b610c088185610be2565b9350610c18818560208601610971565b610c218161099b565b840191505092915050565b610c3581610a05565b82525050565b610c4481610a26565b82525050565b610c5381610a3f565b82525050565b60006080820190508181036000830152610c738187610bf3565b9050610c826020830186610c2c565b610c8f6040830185610c3b565b610c9c6060830184610c4a565b95945050505050565b6000602082019050610cba6000830184610c3b565b92915050565b60006080830160008301518482036000860152610cdd82826109ac565b9150506020830151610cf26020860182610a17565b506040830151610d056040860182610a30565b506060830151610d186060860182610a4b565b508091505092915050565b60006020820190508181036000830152610d3d8184610cc0565b905092915050565b600080fd5b600080fd5b7f4e487b7100000000000000000000000000000000000000000000000000000000600052604160045260246000fd5b610d878261099b565b810181811067ffffffffffffffff82111715610da657610da5610d4f565b5b80604052505050565b6000610db9610b75565b9050610dc58282610d7e565b919050565b600067ffffffffffffffff821115610de557610de4610d4f565b5b610dee8261099b565b9050602081019050919050565b82818337600083830152505050565b6000610e1d610e1884610dca565b610daf565b905082815260208101848484011115610e3957610e38610d4a565b5b610e44848285610dfb565b509392505050565b600082601f830112610e6157610e60610d45565b5b8135610e71848260208601610e0a565b91505092915050565b610e8381610a05565b8114610e8e57600080fd5b50565b600081359050610ea081610e7a565b92915050565b60008060408385031215610ebd57610ebc610b7f565b5b600083013567ffffffffffffffff811115610edb57610eda610b84565b5b610ee785828601610e4c565b9250506020610ef885828601610e91565b9150509250929050565b6000602082019050610f176000830184610c2c565b92915050565b7f4e487b7100000000000000000000000000000000000000000000000000000000600052602260045260246000fd5b60006002820490506001821680610f6457607f821691505b602082108103610f7757610f76610f1d565b5b50919050565b7f4f6e6c792061646d696e2063616e20706572666f726d2074686973206163746960008201527f6f6e000000000000000000000000000000000000000000000000000000000000602082015250565b6000610fd9602283610be2565b9150610fe482610f7d565b604082019050919050565b6000602082019050818103600083015261100881610fcc565b9050919050565b7f496e76616c696420696e64657800000000000000000000000000000000000000600082015250565b6000611045600d83610be2565b91506110508261100f565b602082019050919050565b6000602082019050818103600083015261107481611038565b9050919050565b7f4e487b7100000000000000000000000000000000000000000000000000000000600052603260045260246000fd5b60006040820190506110bf6000830185610c2c565b6110cc6020830184610c3b565b9392505050565b60008190508160005260206000209050919050565b60006020601f8301049050919050565b600082821b905092915050565b6000600883026111357fffffffffffffffffffffffffffffffffffffffffffffffffffffffffffffffff826110f8565b61113f86836110f8565b95508019841693508086168417925050509392505050565b6000819050919050565b600061117c61117761117284610a26565b611157565b610a26565b9050919050565b6000819050919050565b61119683611161565b6111aa6111a282611183565b848454611105565b825550505050565b600090565b6111bf6111b2565b6111ca81848461118d565b505050565b5b818110156111ee576111e36000826111b7565b6001810190506111d0565b5050565b601f82111561123357611204816110d3565b61120d846110e8565b8101602085101561121c578190505b611230611228856110e8565b8301826111cf565b50505b505050565b600082821c905092915050565b600061125660001984600802611238565b1980831691505092915050565b600061126f8383611245565b9150826002028217905092915050565b61128882610955565b67ffffffffffffffff8111156112a1576112a0610d4f565b5b6112ab8254610f4c565b6112b68282856111f2565b600060209050601f8311600181146112e957600084156112d7578287015190505b6112e18582611263565b865550611349565b601f1984166112f7866110d3565b60005b8281101561131f578489015182556001820191506020850194506020810190506112fa565b8683101561133c5784890151611338601f891682611245565b8355505b6001600288020188555050505b505050505050565b6000606082019050818103600083015261136b8186610bf3565b905061137a6020830185610c2c565b6113876040830184610c3b565b94935050505056fea26469706673582212200d40a4c3429b87b2ce1afd502e7ad6bf8bb32d4d3d76be38c4081eb69266316b64736f6c63430008140033",
  "linkReferences": {},
  "deployedLinkReferences": {}
}